:020000040000FA
:100000000014040000000000049D0000C69C0000D5
:10001000CC9C0000D29C0000E09C0000049D0000ED
:10002000049D0000049D0000049D0000FC8C000065
:10003000049D0000E68F0000049D0000049D000068
:10004000049D0000049D0000049D0000049D00002C
:10005000049D00007C500000049D0000049D0000F1
:10006000049D0000049D0000F8710000049D000044
:10007000049D0000808C0000049D0000049D000091
:10008000049D0000049D0000049D0000049D0000EC
:10009000049D0000C07000009E680000049D0000E8
:1000A000C8510000049D0000049D0000049D000054
:1000B000049D0000049D0000049D0000049D0000BC
:1000C000049D0000049D0000049D0000049D0000AC
:1000D000049D0000049D0000049D0000049D00009C
:1000E000049D0000049D0000049D0000049D00008C
:1000F000049D0000049D0000049D0000049D00007C
:10010000049D0000049D0000049D0000049D00006B
:10011000049D0000049D0000049D0000049D00005B
:10012000049D0000049D0000049D0000049D00004B
:10013000049D0000049D0000049D0000049D00003B
:10014000049D0000049D0000049D0000049D00002B
:10015000049D0000049D0000049D0000049D00001B
:10016000049D0000049D0000049D0000049D00000B
:10017000049D0000049D0000049D0000049D0000FB
:10018000049D0000049D0000049D0000049D0000EB
:10019000049D0000049D0000049D0000049D0000DB
:1001A000049D0000049D0000049D0000049D0000CB
:1001B000049D0000049D0000049D0000049D0000BB
:1001C000049D0000049D0000049D0000049D0000AB
:1001D000049D0000049D0000049D0000049D00009B
:1001E000DA88000052890000D6890000049D0000D2
:1001F000548A0000988A0000828B0000F48B000073
:10020000FFFFFF00FFFFFF00049D0000E69C0000D1
:10021000EA9C0000EE9C0000F29C0000049D00009F
:10022000049D0000049D0000049D0000FC8C000063
:10023000049D0000E68F0000049D0000049D000066
:10024000049D0000049D0000049D0000049D00002A
:10025000049D00007C500000049D0000049D0000EF
:10026000049D0000049D0000F8710000049D000042
:10027000049D0000808C0000049D0000049D00008F
:10028000049D0000049D0000049D0000049D0000EA
:10029000049D0000C07000009E680000049D0000E6
:1002A000C8510000049D0000049D0000049D000052
:1002B000049D0000049D0000049D0000049D0000BA
:1002C000049D0000049D0000049D0000049D0000AA
:1002D000049D0000049D0000049D0000049D00009A
:1002E000049D0000049D0000049D0000049D00008A
:1002F000049D0000049D0000049D0000049D00007A
:10030000049D0000049D0000049D0000049D000069
:10031000049D0000049D0000049D0000049D000059
:10032000049D0000049D0000049D0000049D000049
:10033000049D0000049D0000049D0000049D000039
:10034000049D0000049D0000049D0000049D000029
:10035000049D0000049D0000049D0000049D000019
:10036000049D0000049D0000049D0000049D000009
:10037000049D0000049D0000049D0000049D0000F9
:10038000049D0000049D0000049D0000049D0000E9
:10039000049D0000049D0000049D0000049D0000D9
:1003A000049D0000049D0000049D0000049D0000C9
:1003B000049D0000049D0000049D0000049D0000B9
:1003C000049D0000049D0000049D0000049D0000A9
:1003D000049D0000049D0000049D0000049D000099
:1003E000DA88000052890000D6890000049D0000D0
:1003F000548A0000988A0000828B0000F48B000071
:10040000FFFFFF00FFFFFF00FFFFFF00FFFFFF00F8
:10041000FFFFFF00FFFFFF00FFFFFF00FFFFFF00E8
:10042000FFFFFF00FFFFFF00FFFFFF00FFFFFF00D8
:10043000FFFFFF00FFFFFF00FFFFFF00FFFFFF00C8
:10280000AF0C22000EBF22000E0188000000000065
:102810000C000700204D28000100200011000700D7
:10282000000020000000E000020032000000020072
:1028300000000000B06E0200000000000040DA005E
:102840000000FE004440A900003120000000E0002C
:102850000300320000002000A00188004440A800CE
:102860000000060091018800800078000000EB0065
:1028700015003700E280400032A0B4009101BA0098
:10288000E280400032A0B4009102BA00E280400031
:1028900032A0B4000002EB00472BDE00F507B200C7
:1028A000602CE10004003A000059EB008301E900CC
:1028B000FDFF3E00040037006128E1000100320006
:1028C0000082EB00040007001101BA000200E000E2
:1028D000E8FF3A00000006003159BA008301E90020
:1028E0000C0032002159BA008301E90008003200CF
:1028F0000400E00003003A00E280400032A0B4008F
:10290000F5FF370011D9BA008301E900FAFF3A0058
:102910008100E800E180400032A0B4000000060021
:1029200000000000000000000000000000000000A7
:102930000000000000000000000000000000000097
:102940000000000000000000000000000000000087
:102950000000000000000000000000000000000077
:102960000000000000000000000000000000000067
:102970000000000000000000000000000000000057
:102980000000000000000000000000000000000047
:102990000000000000000000000000000000000037
:1029A0000000000000000000000000000000000027
:1029B0000000000000000000000000000000000017
:1029C0000000000000000000000000000000000007
:1029D00000000000000000000000000000000000F7
:1029E00000000000000000000000000000000000E7
:1029F00000000000000000000000000000000000D7
:102A000000000000000000000000000000000000C6
:102A100000000000000000000000000000000000B6
:102A200000000000000000000000000000000000A6
:102A30000000000000000000000000000000000096
:102A40000000000000000000000000000000000086
:102A50000000000000000000000000000000000076
:102A60000000000000000000000000000000000066
:102A70000000000000000000000000000000000056
:102A80000000000000000000000000000000000046
:102A90000000000000000000000000000000000036
:102AA0000000000000000000000000000000000026
:102AB00000000000000000006022B80006022000B4
:102AC0000000D0008180D2000482D2008582D20032
:102AD0000000A0000202520083825A00030031006D
:102AE0000202420083824A000000A1000603E900BE
:102AF000F3FF3A0000000600839F68000100E00039
:102B000002003D0060001000E08018000300E000BB
:102B100002003D0060011100E0811900E6FF07009E
:102B20004F00E00002003B0060001000E080180051
:102B300000000600889FBE008A9FBE008C1F7800A0
:102B40000205BE000004BE000006EB00E00F5000CE
:102B5000E08F5800E00F5900E08F590007003D005A
:102B60006000B8006011B800080450008984580063
:102B70000A0559008B8559001C002000E00F520007
:102B8000E08F5A00E00F5B00E08F5B0002003D0029
:102B90000F0007000C00A2000800BE000A01BE00E2
:102BA000D80207000203BE000002BE000C00E000D5
:102BB00001003200060007000400BE000601BE004E
:102BC0004F0678004F05BE004F04BE00000006000F
:102BD0006000B8006011B8000402500085825800FF
:102BE000060359008783590000000600889FBE0035
:102BF0008A9FBE00010578000100E0000400350056
:102C000008003C000000E000200032000500370012
:102C100060001000E080180002003B0001F02C0072
:102C20001A0037000004BE006011B8006B092000D4
:102C30000982CF00020039000882CF000441B000B1
:102C4000694252000E00320008003B008281710090
:102C5000610164008904D1000884D3008B05E80079
:102C60000442E800F9FF3A00050037000804440078
:102C700089844C008B05E9000442E900FBFF3A001F
:102C8000C20207000AF0A70001F0A0004F05BE0035
:102C90004F04BE00000006000C00FA00889FBE0032
:102CA0008A9FBE008C9FBE00DE0207000206BE00A7
:102CB000840578000200BE0002002000E102070047
:102CC00005003A008B02B30012002000DD0207006D
:102CD00001003A00F8856D000C01BE00C600070037
:102CE0000800BE009B0032000B08A3009E003A00C3
:102CF0000DF0A7000BE0A00009F0A7000BF0A0006A
:102D000009F0A1000801BE00BB0007000BF0A600FF
:102D10009500320001003C000BD0A0008ACF750066
:102D2000B20033006000B8006250E1009900390041
:102D3000A1003E000B28A300A2003A000BF8A3005C
:102D4000060032000B58A300A70032000801BE00A5
:102D5000A90007000800BE00940032000800BE0071
:102D6000DF0207000004BE00050578000BF0A70095
:102D70000B30A6000BF0A1005B079800324F20003B
:102D800053F32300E302070005003D000800BE00E6
:102D900012002000E10207000004BE000A05E9005D
:102DA0004A0798006150B90090FF0700008FBE00ED
:102DB0000C01BE00F9000700FA0207003007980076
:102DC0000100E00002003D0060001000E0801800FB
:102DD000F2FF2700820F5000E08F580064003E0091
:102DE0000C00BE00EF02070020079800F207200049
:102DF000820F5000E08F580005003C0012F82F00B1
:102E0000F3FF2F00820F5000838F580009003D0010
:102E10000A00E0000300320001003C000201EA0069
:102E2000020578006000B800200798003A07980073
:102E3000190037003E0090006100B9006BFF0700E9
:102E4000809FBE000C00BE004109DD004811DE007D
:102E50007208B1007B0207000005BE001E01BE0023
:102E6000CE0007004F01BE006E000700809FBE002D
:102E70000C00BE000A01BE006A0007001E01BE0071
:102E8000C60007004F01BE0067000700822127002F
:102E900013F32300C10007000005BE002E009000C0
:102EA0006100B90051FF070001F0A2000C01BE0053
:102EB0005D0007000006BE000800BE00DA02070041
:102EC0000C01BE00B50007000A01BE005600070055
:102ED000809FBE004A0007002E0590000AF0A70060
:102EE0000A05EA00050037000800BE000801BE0020
:102EF000AA0007000004BE000C00BE000801BE00CE
:102F00000A00A700A50007000006BE000A05D100C0
:102F1000F5FF3A005E01900002E0A60003003700D2
:102F20000001BE0036000700160307000004BE00C3
:102F30004F00BE00550307000801BE0097000700C0
:102F40003E01900075020700DE0590000BF0A7001F
:102F500001F0A2004F06BE004F05BE004F04BE00A8
:102F60000080FA000000060025000700F9FF370086
:102F7000270007006000B8000BD0A7000BC0A0001E
:102F80000BE0A7000BC0A2000BC0A70001F82700B0
:102F9000F0FF37000DF8A300020032001E0007000A
:102FA000190007000BF8A300EAFF32000B30A7005E
:102FB00001F0A200E7FF37000DF8A300F9FF3A0087
:102FC000F7FF37000801BE000B000700E6FF3200E4
:102FD00001003C000DF0A2006000B8000DF0A70059
:102FE00009000700DBFF37000B000700F1FF270097
:102FF000F0FF2F00D7FF3700010007004502370020
:1030000001F823000000050001F82700000005007A
:10301000200220000100370010022000E0FC8800A0
:103020000000060003F0A200889FBE008A9FBE0039
:103030008C1F7800FB010700760333006450E10029
:103040004F0032006420E1005200320003826C0025
:1030500007003B000905D0000306D000820F540092
:103060000C065D0002003900020032008901780080
:10307000030678008582550004003D000003FD0032
:103080008103FD008502EA008B854200840F7200F7
:1030900002003B0060001000E08018006011B800E2
:1030A0000005EB007A28E1000A00390006007800EC
:1030B000C75DDD00F707B200878075002D0037007F
:1030C000828171000A017800610560008180D10071
:1030D0000080D3008502E900F9FF3B0006044000B0
:1030E0008784480002003B0060041400E0841C0058
:1030F0000988A300070032008A8171008281710073
:10310000610164008904D1000884D3008B05E800C4
:10311000170037000978A30013003A000B00E00005
:10312000130034008B05E9000804440089844C0036
:103130000A4474000978A3000D003A000B00E00077
:10314000070034008B05E9000804440089844C0022
:1031500001003A000B0020000978A300F7FF3200BD
:103160000001EB0002003700828171000A01780043
:10317000860107000CF0A70001F0A0002E03370025
:103180006420E10002003A00838F6C002E033300BC
:103190000801BE000200BE0027033700889FBE0062
:1031A0008A9FBE008C1F78009E0107001903330020
:1031B00003866C006450E100240032006420E100CA
:1031C000270032006150E100220032006120E1005E
:1031D000210032008B854200EB07B1000134B800BA
:1031E000003AB8000804420089844A00013AB80055
:1031F0000030B8008880400009014A000400330014
:103200000000400081804800020149008B05E90070
:10321000C909DD00830170000100320013002000A5
:10322000C814DE004814DD004709DE001200B200B9
:10323000C808DE00088470005401070001F0A100F6
:103240000CF0A70001F0A000FB0237006120E100B4
:10325000FD0232000801BE000200BE00F7FF370089
:103260006150E100FCFF3A00F70237000001BE00A8
:10327000F80207000470A70003F0A10003F8A30000
:1032800013003A006509B100100032000900350052
:103290006928E10002003500010028000000050057
:1032A00000004000818048008502E900FCFF3A00F0
:1032B00000000600F88F4200050035008100D100B3
:1032C0000080D3008502E800FCFF3A000000060001
:1032D0008000EB0000000500881F780000047800E3
:1032E0005001BE004000BE00040040008580480040
:1032F0000601490087814900009CBE000294BE007F
:103300000400E1000588E1000690E1000798E10073
:1033100002003100680044001008E8004F04780003
:1033200000000600F4874700889FBE008A9FBE0009
:103330008C9FBE008E1F78000205BE000004BE00F8
:10334000D4B79F00E5B79F00F6B79F0087BF9F00E7
:103350000000EB00C0B79F00B0B79F00A0B79F0070
:1033600090B79F0080B79F000D042000BFB097006A
:103370004FB09700000140000000E0000F003D004A
:103380004F08DE0000007100C0B79F009E000700DC
:1033900001003D0012002000A100070001003D00D7
:1033A00012002000A6000700B1000700B6000700C9
:1033B0000F004000C8FF0700220037004F08DE0062
:1033C00000067100CCB79F008F00070001003D0090
:1033D000120020009200070001003D0012002000B2
:1033E00097000700A20007000FB297009FB2970056
:1033F0002FB39700BFB39700A90007000000520049
:1034000081805A0002015B0083815B0080B79F00CE
:1034100091B79F00A2B79F00B3B79F000007EB00D2
:103420009F0007000020E10001A8E10002B0E100D8
:1034300003B8E100010031001E0020000E0056001C
:10344000C0B79F004FB297000400E00007003500AE
:1034500010002000010020006011B8000804700076
:10346000898470000A0571008B8571008D06E90062
:10347000BEFF3A000400E00003003D0082000700A8
:103480000F00400094FF07004FA897000000E000E5
:1034900004003A000FB497009FB497002FB597002F
:1034A000BFB59700940007004F0778004F06BE0095
:1034B0004F05BE004F04BE004F01B10000000600E2
:1034C000881F780018002000881F780095FF0700EB
:1034D0008F87E9004F04780000000600801FEB0092
:1034E00090FF07008F87E90000000600889FBE005C
:1034F0008A9FBE008C1F78006E00070007003D0009
:1035000073000700E00F5B00E08F5B0007003D00E9
:10351000320007000006EB0004003700340007000B
:1035200002003D002A0007001C0020007200070076
:10353000E3FF07000203BE000002BE000C00E00033
:1035400001003200220007000400BE000601BE0098
:103550004F0678004F05BE004F04BE000000060075
:10356000889FBE008A9FBE008C1F78005100070014
:1035700005003D0056000700E00F5B00E08F5B0098
:1035800006003D00040037001900070003003D005D
:103590006000B8006011B800100007005600070076
:1035A000CEFF07000203BE000002BE000C00E000D8
:1035B00001003200060007000400BE000601BE0044
:1035C0004F0678004F05BE004F04BE000000060005
:1035D0006000B8006011B80000003700040250001D
:1035E00085825800060359008783590000000600B1
:1035F0000006EB00E00F5200E08F5A00E00F5B0086
:10360000E08F5B00000006000180400090B79F0043
:103610000001EB008FB097000100E0000000060001
:103620000200700090B79F000180400080B79F00AB
:103630000001EB00FFA897000100E0000000060079
:103640000200700080B79F00018040006FAA9700C1
:10365000CF20DE0001007000F0AF9F0004024200A6
:10366000250007004F18DE0000027200000006006F
:10367000E4AF9F000804440089844C000A054D0013
:103680008B854D00000006003FB29700CFB2970037
:103690005FB39700EFB3970000FE2F000000060015
:1036A0003FB09700CFB097005FB19700EFB19700A0
:1036B000000006000205BE000004BE00E00F50003E
:1036C000E08F5800E00F5900E08F5900000006001D
:1036D0006000B8006011B8000804500089845800E8
:1036E0000A0559008B8559001C002000E00F52008C
:1036F000E08F5A00000006000800BE000A01BE006C
:1037000000000600889FBE008A9FBE008C9FBE00FE
:103710000404B8000506B8008904460060854E0020
:103720000606B8000A054600E0854E000706B80008
:103730008B054600040EB800890446000A854E0039
:10374000E0854D00050EB8000A0546008B854E0049
:10375000060EB8008B0546000416B8000A054600A0
:103760008B854E000516B8008B054600041EB80078
:103770008B0546000800BE000A01BE004F06BE00D1
:103780004F05BE004F04BE0000000600810020006F
:10379000618055000B003D000B00200061FE2F00F2
:1037A0000100E1001D0034008281710061016400AC
:1037B0008904D1000884D3000000E800FAFF3A0031
:1037C00071002000610064000300700002006000CE
:1037D0000900320061044400E0844C000988A5001F
:1037E000050032008B05E8006808E10002003A009D
:1037F0008904D1000884D300F20F20000258E100B0
:1038000005003D00C75DDD00F907B2008980750045
:1038100008007800000006000BF827008B007800F5
:10382000000005000004BE008A0107000003BE007E
:103830000405BE000200BE0086010700844F75002B
:1038400000000600889FBE008A9FBE000003BE00E5
:103850008001070085057800828152000200200067
:103860006220E10004003A00F307B10004003500D3
:103870007718E100040035000600BE001400370090
:103880006000B8000F003700F50F2000FAFF2F008E
:103890008502D1000A85D3008301E900FCFF3B00CB
:1038A0008184620000046500890F7400F2FF320019
:1038B0008582EA000A85EA008184620000046500CE
:1038C000B2FF070007F0A70001F0A0000081EB00A5
:1038D0000200E0004F05BE004F04BE0000000600DD
:1038E0000003BE005B0107006220E100020032001D
:1038F0000600BE0005000500E507B100F107B200B3
:1039000004F023008480700007F0A70001F0A000FD
:103910002400050014002000630137000003BE00EE
:103920004C0107006220E100020032000600BE00E8
:103930000000060085024100E30F20000328E1009B
:1039400005003C00A3FE2F000328E10007003D0016
:103950000500200001003700F50F200020022000A4
:10396000E0FC88006000B800080037001300200069
:103970008381520005003D008100D1000080D3000A
:103980008301E800FCFF3A0005002000C72ADD00A3
:10399000F107B2008580700007F0A70001F0A000D9
:1039A000000006000001BE002A0107000470A70005
:1039B00003F0A1006509B100160032000D003500CA
:1039C0006828E10006003500F0FF2F00F1FF270016
:1039D0000300E00013003B00010028000000050088
:1039E00000004000818048008502E900FCFF3A00A9
:1039F00008003700F88F420002003C008000EB0016
:103A0000000005008100D1000080D3008502E8009D
:103A1000FCFF3A000300E00002003B0060001000E1
:103A2000E080180000000600889FBE008A9FBE004C
:103A30008C9FBE00AAFF0700850478000005BE0029
:103A40006420E10049003E006220E10003003200F2
:103A5000090035000BF8A300440032000BF8A30066
:103A60000800320010022000E0FC8800F0FF2F0068
:103A7000F1FF27003D00370001F82F000000200073
:103A80003A0037003D00070066FD07000006BE0053
:103A90000A00BE00324F200053F323001D0107002F
:103AA000060034000C00BE00340007005DFD070076
:103AB0000006BE000A00BE00020037008904E900CB
:103AC0000C00BE002D000700B4FD07002B0007000E
:103AD00055FD07000001BE000C00BE0029000700D4
:103AE0000005BE000001BE00ACFD07000006BE00E0
:103AF000A2F32300430D2C004BFD0700809FBE0066
:103B00000C00BE00D2E32700D3F02B00A3FD07007A
:103B10004F01BE001B0007000006BE000A01BE00E8
:103B20009EFD07000A01BE003FFD07000006BE0023
:103B30006148B9002DFC07000005BE0032082800CE
:103B4000E3952B0095FD07000C01BE0036FD070034
:103B50000006BE000A00BE000200280013F3230086
:103B60008EFD07000C01BE002FFD07004F06BE00B2
:103B70004F05BE004F04BE000000060003F0230006
:103B800002000500889FBE008A9FBE008C1F78003F
:103B900024FF07009F00330003866C006450E1009F
:103BA0002E0032006420E100330032006150E10059
:103BB0002F0032006120E100310032008585550080
:103BC000EB07B000090020000804200005003700C2
:103BD0000804440089844C000A00310006034300B5
:103BE00087834B000001530081815B00F8FF3300A5
:103BF0000203BE000800A0000804440089844C00B1
:103C0000F6FF3900C639DD00830173000100320080
:103C1000130020008904D1000884D3000998A30070
:103C2000050032000800A7000300A0008904D100AD
:103C30000884D3008B05E8008904D1000884D300F0
:103C40000001EB000281D200D0FE070001F0A100CC
:103C50000CF0A70001F0A000770037006420E1001D
:103C6000790032000801BE000200BE00F7FF3700F5
:103C70006120E100740032006000B800F3FF3700FB
:103C80000000200001F82700F0FF3700889FBE00E9
:103C90008A9FBE008C9FBE000004BE006D0007001E
:103CA0000800BE006420E10048003E0055003200DC
:103CB00072212700132B24009600070047003C00C8
:103CC0000800BE00C2EC2800E32C2C0011FF070006
:103CD000470035000800BE0001F0A10002002000EE
:103CE000033823000BFF0700430035000800BE0027
:103CF000B2A32A0083FB230028FD07000200200056
:103D000003F0230001F0A70003F0A000C6FC0700A9
:103D100024FF07000005BE00B4FB070001F0A2006D
:103D20000006BE000200280013F323001BFD07005D
:103D30000801BE00BCFC0700809FBE000C00BE0056
:103D400032082800E3952B0014FD07004F01BE0048
:103D5000B5FC07000006BE000001BE000FFD070015
:103D6000809FBE004241250083B823000BFD070061
:103D70000200200003E82300ABFC07000C01BE009A
:103D800006FD07000006BE004F00BE00F2F92B0042
:103D9000C3D4230001FD07000200200003F023002C
:103DA000A1FC07000C01BE009EFC07000001BE0044
:103DB0000C00BE0073FF07000200200003F0230088
:103DC00099FC070061014500D4FE07004F06BE00C4
:103DD0004F05BE004F04BE000000060001F827009A
:103DE0000000200022022000E2FC8800F7FF3700DC
:103DF0006000B800FBFF370001F82300000020003E
:103E0000F2FF370009F8A300F0FF32006000B800AD
:103E1000EEFF37000200BE006450E10005003600EE
:103E20006420E100020036000968A30001003A00A6
:103E30000800BE000160A0004F0678004F05BE00DC
:103E40004F04BE0000000600F0FF2F00F1FF270026
:103E5000F9FF3700C70ADE00F107B200F50FB20024
:103E600008003200E1CF4200020032000170A000E1
:103E700024000500810F70000100320004080500D5
:103E800044000500810F700002003A001400050094
:103E90008502E9000000400081C04800FCFF3B00B3
:103EA0000170A00024000500889FBE008A9FBE000C
:103EB000841F78005BFE07004F007800110033007C
:103EC000F0FF2F00838F6C0006003B0004056500A7
:103ED0000A00A7000800370009F0A6001000200023
:103EE00008003700820F5400838F5C000300390004
:103EF0001000200001003E000000200009F0A70093
:103F00000000EA004F05BE004F04BE000000E000C4
:103F100000000600F4FF2F00E3FF37008001EB00F4
:103F200002003700817178008301E800828F510020
:103F3000FCFF3A00000006008001EB0002003700A1
:103F400061F079008301E800828F5100FCFF3A00A4
:103F5000000006000003780080027800020278006A
:103F60008001EB00080037000402E90063C078001C
:103F7000805A78008301E8000004E00002003A0063
:103F80008000EB0006003700828F5100F6FF3A00F8
:103F9000FBFF37000040EB0080F07A008100E80072
:103FA000848F5000FBFF3A000600780000000600F6
:103FB000810178000002EB000B003700E44078003C
:103FC0000104E000030032000402E80093CF500037
:103FD000040032008180FB001380FB000080500051
:103FE000000006008301E800820F5200F3FF3A0050
:103FF00000000500777700007777000077770000F2
:104000007676000076760000767500007575000003
:1040100075750000747400007474000074730000FF
:1040200073730000737300007272000072720000FC
:1040300072710000717100007171000070700000F9
:1040400070700000706F00006F6F00006F6F0000F5
:104050006E6E00006E6E00006E6D00006D6D0000F3
:104060006D6D00006D6C00006C6C00006C6C0000ED
:104070006B6B00006B6B00006B6B00006A6A0000EA
:104080006A6A00006A6900006969000069690000E5
:1040900069680000686800006868000067670000E1
:1040A00067670000676700006666000066660000DC
:1040B00066660000656500006565000065640000D7
:1040C00064640000646400006463000063630000D3
:1040D00063630000636200006262000062620000CD
:1040E00062610000616100006161000061600000C8
:1040F0006060000060600000605F00005F5F0000C3
:104100005F5F00005F5E00005E5E00005E5E0000BC
:104110005E5D00005D5D00005D5D00005C5C0000B8
:104120005C5C00005C5C00005C5B00005B5B0000B2
:104130005B5B00005B5A00005A5A00005A5A0000AC
:104140005A590000595900005959000059580000A7
:1041500058580000585800005857000057570000A2
:10416000575700005756000056560000565600009C
:104170005655000055550000555500005554000097
:104180005454000054540000545300005353000092
:10419000535300005352000052520000525200008C
:1041A0005251000051510000515100005151000086
:1041B0005050000050500000505000004F4F000081
:1041C0004F4F00004F4F00004E4E00004E4E00007B
:1041D0004E4E00004D4D00004D4D00004D4D000075
:1041E0004C4C00004C4C00004C4C00004B4B000071
:1041F0004B4B00004B4B00004A4A00004A4A00006B
:104200004A4A000049490000494900004949000064
:104210004848000048480000484800004747000060
:10422000474700004747000046460000464600005A
:104230004646000045450000454500004545000054
:104240004444000044440000444400004343000050
:10425000434300004343000042420000424200004A
:104260004242000041410000414100004141000044
:104270004040000040400000403F00003F3F000041
:104280003F3F00003F3E00003E3E00003E3E00003B
:104290003E3D00003D3D00003D3D00003C3C000037
:1042A0003C3C00003C3C00003B3B00003B3B000032
:1042B0003B3A00003A3A00003A3A00003A3900002E
:1042C000393900003938000038380000383800002B
:1042D0003838000037370000373700003736000025
:1042E0003636000036360000353500003535000022
:1042F000353400003434000034340000343300001E
:104300003333000033330000323200003232000019
:104310003231000031310000313100003030000016
:10432000303000002F2F00002F2F00002F2E000014
:104330002E2E00002E2E00002D2D00002D2D000011
:104340002D2C00002C2C00002C2B00002B2B00000F
:104350002B2B00002A2A00002A2A0000292900000D
:10436000292900002928000028280000282700000B
:10437000272700002726000026260000262500000B
:10438000252500002524000024240000242300000B
:10439000232300002322000022220000222100000B
:1043A000212100002120000020200000201F00000B
:1043B0001F1F00001E1E00001E1E00001D1D00000D
:1043C0001D1C00001C1C00001B1B00001B1B000010
:1043D0001A1A00001A190000191900001818000014
:1043E0001817000017170000161600001615000019
:1043F000151500001414000014130000131200001F
:10440000121200001111000010100000100F000027
:104410000F0E00000E0E00000D0D00000C0C000031
:104420000B0B00000A0A0000090900000808000040
:104430000707000006060000050500000404000050
:1044400003030000020100000100000055AA000063
:1044500011EE000077880000CC330000000100005E
:104460003036000030450000364C0000303000008F
:10447000000000000000000000000000000000003C
:1044800030310000000000000000000000000000CB
:1044900030310000000000000000000000000000BB
:1044A0005831000000000000000000000000000083
:1044B00000000000000000000000000000000000FC
:1044C00000000000000000000000000000000000EC
:1044D0000903000044BB000022DD000099660000D3
:1044E00000FF00004C490000544500004F4E000002
:1044F00000500000532D0000323200003532000021
:104500002D3600004C310000552000002020000016
:104510002000000043480000494E00004100000018
:10452000302D000030300000364C000030310000EB
:104530000032000030310000353000003931000019
:104540003154000030000000496E00007665000024
:10455000004600006D6F0000640000004C69000020
:104560006F6E000000000000C06C00003A7B00008D
:10457000B22F00005D920000000100000501000064
:1045800000000000553100004C36000032350000BC
:104590003232000053500000000000000000000014
:1045A000FF570000010000000F0000000A0000009B
:1045B00010000000FF0000000000000000000000EC
:1045C000000000000000000000000000FC040000EB
:1045D000400E0000751F0000715E00003A290000C7
:1045E0004C490000544500004F4E000000500000B0
:1045F000532D000032320000353200002D3600000D
:104600004C31000055200000202000002000000058
:10461000300000000200FA00881F780037DEBF007B
:10462000E14F5000E7003E0008F0B70032DEBF0067
:104630000080FB004201DD000280E800A35321005E
:10464000E0C079000104E0000400320062807900DB
:104650000181FB0071E3210037FE07008800210083
:104660001844780008407800C2C0B3000440BC0081
:10467000A14D210001034100468C88008282E800A0
:1046800081824200558C880066024100010242008E
:10469000748C8800E801410081814100838C88008E
:1046A0006400410001004000608C88006A01410004
:1046B00001014100928C8800D6B88800F6B88800C5
:1046C00015B9880054B9880073B9880030B98800DA
:1046D00092B988000804E0005D003A00B2DDBF0036
:1046E00064F1B700B3DDBF0065F1B700B4DDBF0012
:1046F00067F1B700B5DDBF0068F1B70040EE80009C
:10470000010020008841780000C1EB00473B070012
:10471000E0BF9F004FF8970069F1B7005FF897007E
:104720006AF1B70080EE8000010020008841780027
:1047300000C1EB003D3B0700E0BF9F004FF8970032
:104740006CF1B7005FF897006DF1B700A0EE800044
:10475000010020008841780000C1EB00333B0700D6
:10476000E0BF9F004FF8970070F1B7005FF8970027
:1047700071F1B700E0EE8000010020008841780070
:1047800000C1EB00293B0700E0BF9F004FF89700F6
:104790006EF1B7005FF897006FF1B70088417800BD
:1047A0000841780080102000010020001F3B070016
:1047B000E0BF9F004FF897002BF2B7005FF897001B
:1047C0002CF2B7008841780008417800400B2000A7
:1047D00001002000153B0700E0BF9F004FF8970045
:1047E00029F2B7005FF897002AF2B70073C0B30050
:1047F000B2CFB30000742000010020000B3B070083
:10480000E0BF9F004FF897002DF2B7005FF89700C8
:104810002EF2B7008841780022C0B300E0AC20003F
:1048200001002000013B0700E0BF9F004FF8970008
:104830002FF2B7005FF8970030F2B7008010200029
:1048400020EE8800400B200030EE88006300370027
:10485000B6DDBF0064F1B700B7DDBF0065F1B7009A
:10486000B8DDBF0067F1B700B9DDBF0068F1B70080
:1048700050EE8000010020008041EB0000C1EB0001
:10488000EA3A0700E0BF9F004FF8970069F1B700D0
:104890005FF897006AF1B70090EE800001002000F9
:1048A0008041EB0000C1EB00E03A0700E0BF9F0051
:1048B0004FF897006CF1B7005FF897006DF1B70003
:1048C000B0EE8000010020008041EB0000C1EB0051
:1048D000D63A0700E0BF9F004FF8970070F1B7008D
:1048E0005FF8970071F1B700F0EE80000100200042
:1048F0008041EB0000C1EB00CC3A0700E0BF9F0015
:104900004FF897006EF1B7005FF897006FF1B700AE
:104910008041EB00034178002012200001002000BC
:10492000C23A0700E0BF9F004FF897002BF2B70094
:104930005FF897002CF2B7008041EB00034178004C
:10494000E00B200001002000B83A0700E0BF9F0004
:104950004FF8970029F2B7005FF897002AF2B700E6
:1049600073C0B300B2CFB300008820000100200064
:10497000AE3A0700E0BF9F004FF897002DF2B70056
:104980005FF897002EF2B7008041EB0022C0B30021
:1049900060AB200001002000A43A0700E0BF9F00A8
:1049A0004FF897002FF2B7005FF8970030F2B7008A
:1049B0002012200020EE8800E00B200030EE88005E
:1049C0000600370030D1BF00C2C0B3000440BC00B5
:1049D000404E2100000141001260A0004F04780009
:1049E0000080FA00000006000042780000CCB3000E
:1049F000804162000300320000C4B30080CF510048
:104A000004003A000040EB0080487800004978003C
:104A10003200370000C8B30080CF51002D003A00AB
:104A200000CFB30000406200834F500004003A0002
:104A300010C0B30080487800004978002700370094
:104A4000C0CFB3008041620040C9B30080CF5100A5
:104A500005003A0010C0B3008048780020C0B300C1
:104A6000004978001D00370080C9B30080CF510095
:104A700005003A0010C0B3008048780030C0B30091
:104A8000004978001500370040CAB30080CF5100BC
:104A900005003A0010C0B3008048780040C0B30061
:104AA000004978000D00370080CAB30080CF510064
:104AB00005003A0010C0B3008048780050C0B30031
:104AC000004978000500370080C8EB000049EB0082
:104AD0000200370080C8EB000049EB000000060030
:104AE00037DEBF001250210001502100BEFF070039
:104AF0000050210080C0EB0090CF10000E0032006B
:104B000032DEBF000080FB004201DD000280E800D1
:104B1000A3532100E0C079000104E000040032004A
:104B2000628079000181FB0071E3210002FD070032
:104B3000381FA8000600370030D1BF00C2C0B30044
:104B40000440BC00404E2100000141001260A00062
:104B500000000600889FBE0072E321001241780029
:104B60000281FB0038DEBF004800DD00000171005B
:104B7000030020008040EB0002007800043A0700A8
:104B80000004BE0032DEBF000080FB004201DD00F9
:104B90000280E800A3532100E0C079000104E00096
:104BA00004003200628079000181FB0071E3210082
:104BB000E1FC0700C8EC88004F04BE0000000600BE
:104BC000889FBE0072E32100124178000281FB0041
:104BD00038DEBF004800DD00000171000300200046
:104BE0008040EB0002007800E93907000004BE00B5
:104BF00032DEBF000080FB004201DD000280E800E1
:104C0000A3532100E0C079000104E0000400320059
:104C1000628079000181FB0071E32100C6FC07007E
:104C20003E33AB0015003200047420000500200064
:104C3000840F5400858F5C000E0036000074200045
:104C400030ED88008041EB00B2CFB3000400BE001D
:104C5000F63907000100200075F1B7004809DD00B2
:104C60004800DE0000007100C808DE0076F1B700E1
:104C70001600370038ED8800140037000474200057
:104C800005002000840F5400858F5C000E00360064
:104C90000074200020ED88008041EB00B2CFB3000B
:104CA0000400BE00E13907000100200075F1B700E3
:104CB0004809DD004800DE0000007100C808DE0081
:104CC00076F1B7000100370028ED88004F04BE00E0
:104CD0000000060037DEBF000080FB0082E32100F9
:104CE000124178004811DD000200700002702F00B0
:104CF000F3FF2F0000004100E08049000250200037
:104D0000820F5000E08F580019003E0032DEBF00D5
:104D10000080FB004201DD000280E800A353210077
:104D2000E0C079000104E0000400320062807900F4
:104D30000181FB0071E321007FFC070044D1BF002B
:104D40000080FB0052142100124178004811DD0060
:104D500002007000223A26000200B80002C82000BB
:104D60000300200054F7070030A988000600370030
:104D700030D1BF00C2C0B3000440BC00404E21008F
:104D8000000141001260A00000000600889FBE00E4
:104D900071E32100914078008180FB0038DEBF0084
:104DA0004800DD0080807000610CB80000702F00AA
:104DB000F1FF2F00080040008980480002502000C9
:104DC000820F5000E08F580016003E0032DEBF0018
:104DD0000080FB004201DD000280E800A3532100B7
:104DE000E0C079000104E000040032006280790034
:104DF0000181FB0071E321004FFC0700E20320006A
:104E00000240B80002C9B900810041004809DD0034
:104E10004800DE0000007100C808DE0040EC880099
:104E20000600370030D1BF00C2C0B3000440BC0050
:104E3000404E2100000141001260A0004F04BE005E
:104E400000000600889FBE0071E3210091407800B9
:104E50008180FB0038DEBF004800DD0080807000EC
:104E6000610CB80000702F00F1FF2F000800400017
:104E70008980480002502000820F5000E08F5800C7
:104E800016003E0032DEBF000080FB004201DD0064
:104E90000280E800A3532100E0C079000104E00093
:104EA00004003200628079000181FB0071E321007F
:104EB00021FC0700E20320000240B80002C9B9004B
:104EC000810041004809DD004800DE00000071005B
:104ED000C808DE0050EC88000600370030D1BF0063
:104EE000C2C0B3000440BC00404E2100000141009C
:104EF0001260A0004F04BE0000000600889FBE00A4
:104F000071E32100914078008180FB0038DEBF0012
:104F10004800DD0080807000610CB80000702F0038
:104F2000F1FF2F0008004000898048000250200057
:104F3000820F5000E08F580016003E0032DEBF00A6
:104F40000080FB004201DD000280E800A353210045
:104F5000E0C079000104E0000400320062807900C2
:104F60000181FB0071E32100F3FB0700E203200055
:104F70000240B80002C9B900810041004809DD00C3
:104F80004800DE0000007100C808DE0060EC880008
:104F90000600370030D1BF00C2C0B3000440BC00DF
:104FA000404E2100000141001260A0004F04BE00ED
:104FB00000000600889FBE0071E321009140780048
:104FC0008180FB0038DEBF004800DD00808070007B
:104FD000610CB80000702F00F1FF2F0008004000A6
:104FE0008980480002502000820F5000E08F580056
:104FF00016003E0032DEBF000080FB004201DD00F3
:105000000280E800A3532100E0C079000104E00021
:1050100004003200628079000181FB0071E321000D
:10502000C5FB0700E20320000240B80002C9B90036
:10503000810041004809DD004800DE0000007100E9
:10504000C808DE0070EC88000600370030D1BF00D1
:10505000C2C0B3000440BC00404E2100000141002A
:105060001260A0004F04BE0000000600889FBE0032
:1050700037DEBF000080FB0081E321009140780013
:10508000C808DD00010070006101B8000040200088
:10509000020060000700320030D1BF00C2C0B30080
:1050A0000440BC00404E2100000141001260A000FD
:1050B00034003700A193210091407800020078006D
:1050C000B33807000004BE00A2932100124178000B
:1050D0000281FB00200320008201DD00600E200021
:1050E0000200DD0001002000800F5400818F5C0071
:1050F0001E003E006118B800800F5400818F5C00D4
:105100001A00390032DEBF000080FB004201DD00E2
:105110000280E800A3532100E0C079000104E00010
:1051200004003200628079000181FB0071E32100FC
:1051300081FB070060C620000041B80000C8B9002C
:10514000830140003AD9BF000080FB006A004000A4
:105150000000E900030033008301D1000281D30085
:10516000FBFF370082EC88000600370030D1BF001B
:10517000C2C0B3000440BC00404E21000001410009
:105180001260A0004F04BE0000000600889FBE0011
:1051900037DEBF000080FB0081E3210091407800F2
:1051A000C808DD00010070006101B8000040200067
:1051B000020060000700320030D1BF00C2C0B3005F
:1051C0000440BC00404E2100000141001260A000DC
:1051D00034003700B193210091407800020078003C
:1051E0006B3807000004BE00B29321001241780022
:1051F0000281FB00200320008201DD00600E200000
:105200000200DD0001002000800F5400818F5C004F
:105210001E003E006118B800800F5400818F5C00B2
:105220001A00390032DEBF000080FB004201DD00C1
:105230000280E800A3532100E0C079000104E000EF
:1052400004003200628079000181FB0071E32100DB
:1052500039FB070060C620000041B80000C8B90053
:10526000830140003BD9BF000080FB006A00400082
:105270000000E900030033008301D1000281D30064
:10528000FBFF3700A2EC88000600370030D1BF00DA
:10529000C2C0B3000440BC00404E210000014100E8
:1052A0001260A0004F04BE0000000600889FBE00F0
:1052B00037DEBF000080FB0081E3210091407800D1
:1052C000C808DD00010070006101B8000040200046
:1052D000020060000700320030D1BF00C2C0B3003E
:1052E0000440BC00404E2100000141001260A000BB
:1052F000370037008040EB000200780024380700B8
:105300000004BE0080072000800F5400E08F5C0086
:1053100029003E0032DEBF000080FB004201DD00BC
:105320000280E800A3532100E0C079000104E000FE
:1053300004003200628079000181FB0071E32100EA
:10534000FDFA07003051E20012003A0088007800B0
:1053500078ED8800E90F5400E08F5C000300360010
:105360006A005400D0ED880001003700BA3DEF001C
:1053700091ED8800E90F5400E08F5C0003003600D7
:105380006A805000E0ED880011003700BC3DEF005E
:105390000F003700B8ED8800E90F5400E08F5C0083
:1053A000030036006A005400F0ED88000800370062
:1053B000BE3DEF000600370030D1BF00C2C0B300D1
:1053C0000440BC00404E2100000141001260A000DA
:1053D0004F04BE0000000600889FBE0037DEBF00FD
:1053E0000080FB0081E3210091407800C808DD00C7
:1053F000010070006101B800004020000200600060
:105400000700320030D1BF00C2C0B3000440BC006E
:10541000404E2100000141001260A0002100370031
:105420008040EB0002007800D93707000004BE007E
:1054300080072000800F5400E08F5C0013003E00C6
:1054400032DEBF000080FB004201DD000280E80088
:10545000A3532100E0C079000104E0000400320001
:10546000628079000181FB0071E32100B2FA07003C
:105470003051E20003003A0088ED8800A8ED880072
:1054800008003700C8ED88000600370030D1BF00A3
:10549000C2C0B3000440BC00404E210000014100E6
:1054A0001260A0004F04BE0000000600889FBE00EE
:1054B00037DEBF000080FB0081E3210091407800CF
:1054C000C808DD00010070006101B8000040200044
:1054D000020060000700320030D1BF00C2C0B3003C
:1054E0000440BC00404E2100000141001260A000B9
:1054F000300037008040EB0002007800A43707003E
:105500000004BE0020EE80006F004000010020007B
:10551000800F5400818F5C0020003E0030EE800040
:105520007E00500001002000800F5400818F5C003D
:105530001A00390032DEBF000080FB004201DD00AE
:105540000280E800A3532100E0C079000104E000DC
:1055500004003200628079000181FB0071E32100C8
:1055600075FA070030D1BF000080FB0080004000CA
:10557000000420000100400082D82100083079009A
:10558000E60F5400E08F5C000A0036004104B000D2
:1055900067005400803079000600370030D1BF002A
:1055A000C2C0B3000440BC00404E210000014100D5
:1055B0001260A0004F04BE0000000600889FBE00DD
:1055C00037DEBF000080FB0081E3210091407800BE
:1055D000C808DD00010070006101B8000040200033
:1055E000020060000700320030D1BF00C2C0B3002B
:1055F0000440BC00404E2100000141001260A000A8
:10560000290037008040EB00020078006037070077
:105610000004BE0020EE80006F004000010020006A
:10562000800F5400818F5C0019003E0030EE800036
:105630007E00500001002000800F5400818F5C002C
:105640001300390032DEBF000080FB004201DD00A4
:105650000280E800A3532100E0C079000104E000CB
:1056600004003200628079000181FB0071E32100B7
:1056700031FA070030D1BF000080FB00000040007D
:105680008004B00081D8210008B0780006003700FF
:1056900030D1BF00C2C0B3000440BC00404E210066
:1056A000000141001260A0004F04BE00000006008F
:1056B000889FBE0037DEBF000080FB0081E3210031
:1056C00091407800C808DD00010070006101B80059
:1056D00000402000020060000700320030D1BF000F
:1056E000C2C0B3000440BC00404E21000001410094
:1056F0001260A000300037008040EB00020078000C
:10570000233707000004BE0020EE80006F00400039
:1057100001002000800F5400818F5C0020003E00BB
:1057200030EE80007E00500001002000800F540009
:10573000818F5C001A00390032DEBF000080FB0060
:105740004201DD000280E800A3532100E0C079009F
:105750000104E00004003200628079000181FB0056
:1057600071E32100F4F9070030D1BF000080FB0095
:1057700080004000C00420000100400082D82100C9
:1057800008307900E60F5400E08F5C000A00360014
:105790000105B00067004400803079000600370042
:1057A00030D1BF00C2C0B3000440BC00404E210055
:1057B000000141001260A0004F04BE00000006007E
:1057C000889FBE0037DEBF000080FB0081E3210020
:1057D00091407800C808DD00010070006101B80048
:1057E00000402000020060000700320030D1BF00FE
:1057F000C2C0B3000440BC00404E21000001410083
:105800001260A000290037008040EB000200780001
:10581000DF3607000004BE0020EE80006F0040006D
:1058200001002000800F5400818F5C0019003E00B1
:1058300030EE80007E00500001002000800F5400F8
:10584000818F5C001300390032DEBF000080FB0056
:105850004201DD000280E800A3532100E0C079008E
:105860000104E00004003200628079000181FB0045
:1058700071E32100B0F9070030D1BF000080FB00C8
:10588000000040004005B00081D8210008B0780039
:105890000600370030D1BF00C2C0B3000440BC00D6
:1058A000404E2100000141001260A0004F04BE00E4
:1058B00000000600881F780081E3210091407800F5
:1058C0008180FB0039DEBF004800DD0000847000ED
:1058D00006003A0002402A000300200001102000C8
:1058E000408020004035070003003700000F2000F3
:1058F000800F540015003E0032DEBF000080FB0028
:105900004201DD000280E800A3532100E0C07900DD
:105910000104E00004003200628079000181FB0094
:1059200071E3210084F9070000C1B3005EF2B70003
:105930004080200000004400F12521000F000900F4
:10594000B05878000001B1000600370030D1BF0028
:10595000C2C0B3000440BC00404E21000001410021
:105960001260A0004F0478000000060030A1800003
:1059700066006000E40F500016003A00C1252100C7
:10598000914078008180FB005DD2BF004800DD00BF
:1059900080807000408020008080400080E32100F3
:1059A0000F000900B05878000101B100F125210075
:1059B00080E321000F000900B058780026F4A80009
:1059C00010C0B300B5EDB700303FA800305FA800AD
:1059D0000600370030D1BF00C2C0B3000440BC0095
:1059E000404E2100000141001260A00000000600AE
:1059F000889FBE0037DEBF000080FB0081E32100EE
:105A000091407800C808DD00010070006101B80015
:105A100000402000020060000700320030D1BF00CB
:105A2000C2C0B3000440BC00404E21000001410050
:105A30001260A0001D0037008040EB0002007800DB
:105A4000533607000004BE0040062000800F5400BB
:105A5000E08F5C000F003E0032DEBF000080FB00E4
:105A60004201DD000280E800A3532100E0C079007C
:105A70000104E00004003200628079000181FB0033
:105A800071E321002CF9070008407800D5300700A9
:105A90000600370030D1BF00C2C0B3000440BC00D4
:105AA000404E2100000141001260A0004F04BE00E2
:105AB0000000060037DEBF0070405000F24F40008B
:105AC0000D00360032DEBF000080FB004201DD0029
:105AD0000280E800A3532100E0C079000104E00047
:105AE0000B003200628079000181FB0071E321002C
:105AF00011F907000600370030D1BF00C2C0B30063
:105B00000440BC00404E2100000141001260A00092
:105B10000000060032DEBF000080FB004201DD0015
:105B20000280E800A3532100E0C079000104E000F6
:105B300004003200628079000181FB0071E32100E2
:105B4000FDF8070030D1BF0072C0B3000440BC00B4
:105B5000E6004100C04C21007334210093707800AE
:105B60008134210011717800D14C2100933421003F
:105B700013F178008281E800811F7800A1342100B0
:105B800091717800CF00780064014100811F780096
:105B9000B134210011717800CF007800831F7800A4
:105BA000C334210013F17800CF017800821F780000
:105BB000D234210092F178004F01780000000600F5
:105BC000881F780078E3210018447800F74F5400CC
:105BD00040003E0032DEBF000080FB004201DD00DD
:105BE0000280E800A3532100E0C079000104E00036
:105BF00004003200628079000181FB0071E3210022
:105C0000CDF80700A0C0B30060F3B70008407800EB
:105C1000A2C0B3000440BC00E061200000004100CD
:105C20004180200001004000801F78001040780073
:105C300061F3B7004F0078001040900062F3B700A6
:105C4000006220000000410001004000801F780039
:105C50001040780063F3B7004F00780010409000C8
:105C600064F3B700C0612000000041000100400063
:105C7000801F78001040780065F3B7004F0078006F
:105C80001040900066F3B700A061200000004100C2
:105C900001004000801F78001040780067F3B700D3
:105CA0004F0078001040900068F3B700806120003A
:105CB00000014100010141001240900069F3B7006A
:105CC000801F7800124078006AF3B7004F00780018
:105CD0000600370030D1BF00C2C0B3000440BC0092
:105CE000404E2100000141001260A0004F047800E6
:105CF000000006004771EF004871EF004971EF00A6
:105D00004A71EF004B71EF0050C0B30046F1B7008D
:105D100092E321001241780081E321009140780054
:105D200060C8B30080CF5000130032000040E8008C
:105D300080CF50001E003200FBCF50002A003A00F6
:105D4000E14F510005003A0070142100015221007A
:105D50000400090031587800290037000204E000EF
:105D600027003A0070142100A1512100040009000D
:105D70003158780022003700E14F510005003A0009
:105D8000701421008150210004000900315878006E
:105D90001B0037000204E00019003A0070142100D3
:105DA0002150210004000900315878001400370008
:105DB000E14F510005003A007014210041512100CB
:105DC00004000900315878000D0037000204E0009B
:105DD0000B003A0070142100E1502100040009007A
:105DE000315878000600370030D1BF00C2C0B30080
:105DF0000440BC00404E2100000141001260A000A0
:105E00000000060080417800C0C7B30080CF510079
:105E10002A00320007003E0000C0E90080CF510098
:105E20000C0032000040E80080CF51005B003A00D7
:105E300015003700E0C7B30080CF51003B003200AF
:105E40002C0039006340400080CF510053003A00DD
:105E500044003700E14F410005003A008000FD009A
:105E6000CCF4B700D3F4B7008000FD005100370038
:105E70000240780072C0B3000440BC00C04C210056
:105E8000017178004B003700E14F410005003A00F6
:105E90008000FD00CDF4B700D4F4B7008000FD0011
:105EA000440037000240780072C0B3000440BC00D8
:105EB000D04C2100017178003E003700E14F4100D5
:105EC00005003A008000FD00D0F4B700D7F4B70019
:105ED0008000FD00370037000240780072C0B30038
:105EE0000440BC0064014100C04C210001717800F5
:105EF00030003700E14F410005003A008000FD000E
:105F0000CEF4B700D5F4B7008000FD0029003700BB
:105F10000240780072C0B3000440BC000281E80077
:105F2000C04C21000171780022003700E14F410090
:105F300005003A008000FD00CFF4B700D6F4B700AA
:105F40008000FD001B0037000240780072C0B300E3
:105F50000440BC000281E800D04C210001717800AF
:105F600014003700E14F410005003A008000FD00B9
:105F7000D1F4B700D8F4B7008000FD000D00370061
:105F80000240780072C0B3000440BC0064014100CC
:105F9000D04C2100017178000600370030D1BF00DD
:105FA000C2C0B3000440BC00404E210000014100CB
:105FB0001260A000000006008040780010C0B3000E
:105FC00041F1B700C0C7B30080CF500022003200BB
:105FD00007003E0000C0E90080CF50000C003200F6
:105FE0000040E80080CF500043003A001100370025
:105FF000E0C7B30080CF50002B00320020003900F2
:106000006340400080CF50003B003A003000370032
:1060100030D1BF0072C0B3000440BC00C04C2100AE
:10602000801F78006240780042F1B7004F0078008E
:106030003800370030D1BF0072C0B3000440BC004C
:10604000D04C2100801F78006240780042F1B700F8
:106050004F0078002F00370030D1BF0072C0B3006E
:106060000440BC0064014100C04C2100801F780046
:106070006240780042F1B7004F00780025003700F9
:1060800030D1BF0072C0B3000440BC000281E80000
:10609000C04C2100801F78006240780042F1B700B8
:1060A0004F0078001B00370030D1BF0072C0B30032
:1060B0000440BC000281E800D04C2100801F780021
:1060C0006240780042F1B7004F00780011003700BD
:1060D00030D1BF0072C0B3000440BC006401410075
:1060E000D04C2100801F78006240780042F1B70058
:1060F0004F0078000700370030D1BF00C2C0B300A6
:106100000440BC00404E2100000141001260A0008C
:1061100042F1EF00000006000041780010C0B3001B
:1061200041F1B700C0C7B300804F510022003200D8
:1061300007003E0000C0E900804F51000C00320013
:106140000040E800804F510043003A001100370042
:10615000E0C7B300804F51002B003200200039000F
:1061600063404000804F51003B003A003000370050
:106170000140780072C0B3000440BC00C04C210054
:10618000801F78006240780042F1B7004F0078002D
:10619000380037000140780072C0B3000440BC00F2
:1061A000D04C2100801F78006240780042F1B70097
:1061B0004F0078002F0037000140780072C0B30014
:1061C0000440BC0064014100C04C2100801F7800E5
:1061D0006240780042F1B7004F0078002500370098
:1061E0000140780072C0B3000440BC000281E800A6
:1061F000C04C2100801F78006240780042F1B70057
:106200004F0078001B0037000140780072C0B300D7
:106210000440BC000281E800D04C2100801F7800BF
:106220006240780042F1B7004F007800110037005B
:106230000140780072C0B3000440BC00640141001A
:10624000D04C2100801F78006240780042F1B700F6
:106250004F0078000700370030D1BF00C2C0B30044
:106260000440BC00404E2100000141001260A0002B
:1062700042F1EF00000006000080FB00010020005A
:10628000720E2000820F5000E08F5800EB003E009D
:1062900000600100E7003700E6003700E500370046
:1062A000E4003700E5003700E2003700E300370084
:1062B000E2003700E1003700E0003700DF00370080
:1062C000DE003700DD003700DC003700DB00370080
:1062D000DA003700D7003700D6003700D700370084
:1062E000D6003700D5003700D4003700D300370080
:1062F000D2003700D1003700CE003700CD00370084
:10630000CC003700CD003700CC003700CB00370081
:10631000CA003700C7003700C6003700C700370083
:10632000C6003700C5003700C4003700C30037007F
:10633000C2003700C1003700C0003700BF0037007F
:10634000BE003700BD003700BC003700BB0037007F
:10635000BA003700B9003700B8003700B70037007F
:10636000B6003700B5003700B4003700B30037007F
:10637000B2003700B1003700B0003700AD00370081
:10638000AC003700AD003700AC003700AB00370081
:10639000AA003700A7003700A6003700A500370085
:1063A000A4003700A5003700A4003700A100370083
:1063B000A0003700A1003700A00037009D00370083
:1063C0009E0037009D0037009C0037009B0037007F
:1063D0009800370097003700960037009700370085
:1063E0009600370095003700920037009100370083
:1063F000900037008F0037008E0037008D00370087
:106400008E0037008D0037008C0037008B0037007E
:106410008A0037008900370088003700870037007E
:10642000860037008500370084003700830037007E
:106430008200370081003700800037007F0037007E
:106440007E0037007D0037007C0037007B0037007E
:106450007A0037007900370078003700770037007E
:10646000760037007500370074003700730037007E
:1064700072003700710037006E0037006D00370082
:106480006C0037006B0037006A0037006900370086
:106490006A00370069003700660037006700370080
:1064A000660037006500370064003700630037007E
:1064B000620037005F0037005E0037005F00370082
:1064C0005C0037005B0037005A0037005900370086
:1064D0005800370057003700560037005700370084
:1064E0005600370055003700520037005100370082
:1064F000500037004F0037004E0037004D00370086
:106500004C0037004B0037004A0037004900370085
:106510004A00370047003700460037004500370083
:106520004400370043003700420037004100370085
:10653000400037003F0037003E0037003F00370083
:106540003E0037003D0037003C0037003B0037007D
:106550003A00370037003700360037003700370081
:10656000360037003500370034003700330037007D
:106570003200370031003700300037002F0037007D
:106580002E0037002D0037002C0037002B0037007D
:106590002A0037002900370028003700270037007D
:1065A000260037002500370024003700230037007D
:1065B0002200370021003700200037001F0037007D
:1065C0001E0037001D0037001C0037001B0037007D
:1065D0001800370017003700160037001700370083
:1065E0001400370013003700120037001100370085
:1065F000100037000F0037000E0037000D00370085
:106600000C0037000B0037000A0037000900370084
:106610000800370007003700080037000700370080
:106620000600370005003700020037000100370080
:106630000000370010002000010037000000EB00D0
:1066400000000600804078000004E0001B003200DB
:10665000E34F500019003200F04F50001700320095
:10666000FA4F500015003200FB4F5000130032006B
:10667000F0C4B30080CF50001000320000C0E8002A
:1066800080CF50000D0032006440400080CF5000A9
:106690000A00320000C0E80080CF5000070032003E
:1066A0000040E80080CF5000040032000001EB0001
:1066B0000040E80080CF500001003A0012002000A6
:1066C0000200780000000600804078000004E0002E
:1066D00046003200F04F500044003200FA4F5000A4
:1066E00042003200FB4F50004000320000C2B300B5
:1066F00080CF50003D003200F0C4B30080CF500086
:106700003A0032000040E80080CF500037003200ED
:106710000040E80080CF5000340032006440400068
:1067200080CF5000310032000040E80080CF5000A0
:106730002E0032000040E80080CF50002B003200D5
:106740000040E80080CF5000280032000040E80000
:1067500080CF5000250032000040E80080CF50007C
:10676000220032007F40400080CF50001F003200E6
:106770000040E80080CF50001C0032000040E800DC
:1067800080CF5000190032000040E80080CF500058
:10679000160032000040E80080CF500013003200A5
:1067A0000040E80080CF5000100032006D404000F3
:1067B00080CF50000D0032007540400080CF500067
:1067C0000A0032000040E80080CF5000070032008D
:1067D0000040E80080CF5000040032000001EB00D0
:1067E0000040E80080CF500001003A001200200075
:1067F0000200780000000600881F780088E321006E
:1068000018447800084078009BFE07000004E00070
:106810001A0032003051E20008003A000880FB0004
:106820004200DD00C1532100010040009040900073
:10683000C0CFB30080C0600011003700084078006E
:1068400080FF07000004E00004003A0008407800E0
:106850009DFF07000004E000080032000880FB00F4
:106860004200DD00C1532100010040009040900033
:10687000C0CFB30080C06000010037008040EB0053
:1068800010C0B3003FF1B7000100780040F1B7003D
:106890004F0478000000060080C0B30028F4B70061
:1068A0005049800029F4B7004880DE002AF4B70080
:1068B000604980002BF4B7004880DE002CF4B7005C
:1068C0000042EB000002FD002DF4B7002EF4B700EB
:1068D0000002FD00B04980002FF4B7004880DE00C0
:1068E00030F4B70065C0B3000500780031F4B7009C
:1068F0002048800032F4B7004880DE0033F4B7004F
:10690000304880004148800034F4B700C889DE0078
:10691000480BDD004801DE00020173000001FD00AC
:1069200035F4B7000001FD004089DE00CF91DE00A4
:106930000001FD0036F4B7000001FD004888DE00CC
:10694000CF80DE0037F4B7000500780038F4B700D8
:106950005048800039F4B7004880DE003AF4B700B0
:1069600060488000714880003BF4B700C889DE00B1
:10697000480BDD004801DE00020173000001FD004C
:106980003CF4B7000001FD004089DE00CF91DE003D
:106990000001FD003DF4B7000001FD004888DE0065
:1069A000CF80DE003EF4B700050078003FF4B7006A
:1069B0008048800040F4B7004880DE0041F4B70012
:1069C00090488000A148800042F4B700C889DE00EA
:1069D000480BDD004801DE00020173000001FD00EC
:1069E00043F4B7000001FD004089DE00CF91DE00D6
:1069F0000001FD0044F4B7000001FD004888DE00FE
:106A0000CF80DE0045F4B7000500780046F4B700FB
:106A1000A049800047F4B7004880DE0048F4B70082
:106A2000804980009149800049F4B700C889DE00A0
:106A3000480BDD004801DE00020173000001FD008B
:106A40004AF4B7000001FD004089DE00CF91DE006E
:106A50000001FD004BF4B7000001FD004888DE0096
:106A6000CF80DE004CF4B700050078004DF4B7008D
:106A7000004A80004EF4B7004880DE004FF4B700B3
:106A8000104A8000214A800050F4B700C889DE0017
:106A9000480BDD004801DE00020173000001FD002B
:106AA00051F4B7000001FD004089DE00CF91DE0007
:106AB0000001FD0052F4B7000001FD004888DE002F
:106AC000CF80DE0053F4B7000500780054F4B7001F
:106AD000E048800055F4B7004880DE0056F4B70067
:106AE000F04880000149800057F4B700C889DE00F3
:106AF000480BDD004801DE00020173000001FD00CB
:106B000058F4B7000001FD004089DE00CF91DE009F
:106B10000001FD0059F4B7000001FD004888DE00C7
:106B2000CF80DE005AF4B700050078005BF4B700B0
:106B30000002FD005CF4B7005DF4B7005EF4B7003E
:106B40005FF4B70060F4B7000002FD0004007800B5
:106B500061F4B7000500780062F4B700C049800016
:106B600063F4B7004880DE0064F4B7000002FD0063
:106B700065F4B70066F4B70067F4B70068F4B700CF
:106B80000002FD000500780069F4B700D0498000DC
:106B90006AF4B7004880DE006BF4B7000002FD0025
:106BA0006CF4B7006DF4B7006EF4B7006FF4B70083
:106BB0000002FD000500780070F4B700E049800095
:106BC00071F4B7004880DE0072F4B7000002FD00E7
:106BD00073F4B70074F4B70075F4B70076F4B70037
:106BE0000002FD0000000600FF72EF000073EF00DE
:106BF0000173EF000273EF000373EF000473EF0003
:106C000060C0B300FEF2B70038DEBF00E14F5000B5
:106C100016003A0020488000FFF2B7004880DE00EE
:106C200000F3B700304880004148800001F3B7000E
:106C3000C889DE00480ADD004801DE00020172005A
:106C40000001FD0002F3B7000001FD004089DE00F5
:106C5000CF91DE000001FD0003F3B7000001FD004D
:106C60004888DE00CF80DE0004F3B7000000060095
:106C700000037800830378006108B8003602400002
:106C8000A6824800F3FF2700830F5200E08F5A00CE
:106C90000D00360092417800E1CF41000200320041
:106CA0000349E800010037000049EB0036014000CD
:106CB000A681480010002800F1FF2F00001B4100B2
:106CC0000193490001003700048BBE001701BE008C
:106CD000F0FF2F00F10F2000800F5100818F59002D
:106CE00003003600800BEB00B71378000400370078
:106CF0001000200001002000801B4100819349000A
:106D000000000600C8D1BF000080FB00911C2100DC
:106D100091407800C808DD00010070008040EB0061
:106D20009B310700A3002100E200210080007800D1
:106D300000012100CEFF070052A8800041A880007A
:106D400080808000C3502100934178007331070098
:106D50002F7FA80061C0B3008000FD0096F1B7004E
:106D60008000FD0097F1B7004800DE0098F1B70001
:106D70000ED0BF0099F1B700508080006180800084
:106D80009AF1B700C809DE00480ADD004801DE00BC
:106D9000020172000001FD009BF1B7000001FD003F
:106DA0004008DE009CF1B7002F9FA8002F7FA900AC
:106DB00000000600C6D1BF000080FB00711C21004E
:106DC00091407800C808DD00010070008040EB00B1
:106DD0006F3107004301210082012100800078000B
:106DE000A0012100A2FF0700B2A88000A1A8800096
:106DF000D080800083512100934178004731070003
:106E00002FBFA80061C0B3008000FD00A4F1B7004F
:106E10008000FD00A5F1B7004800DE00A6F1B70034
:106E200018D0BF00A7F1B700A0808000B18080001B
:106E3000A8F1B700C809DE00480ADD004801DE00FD
:106E4000020172000001FD00A9F1B7000001FD0080
:106E50004008DE00AAF1B7002FDFA8002FBFA9006D
:106E60000000060061C0B3000100780096F1B70091
:106E70000040EB0097F1B70098F1B70099F1B70027
:106E80009AF1B7009BF1B7009CF1B7008000FD00BC
:106E9000A4F1B7008000FD00A5F1B700A6F1B7008E
:106EA000A7F1B700A8F1B700A9F1B700AAF1B700A0
:106EB0000000060093FF0700BEFF07000000060069
:106EC000881F780001818000E0C98000808F500019
:106ED0000700390071F98000004020000084600044
:106EE00005003A00F3FF0700088188000200370020
:106EF0000100E80000818800F0808000F30F50005E
:106F0000120036000004EB00F8808800F20C070045
:106F100003DCBF004800DD0021C021009140780063
:106F20008180FB0001007000884078001831070064
:106F30000001BE00C0A9880091C0210091407800E6
:106F400002007800E4010700020037000000E800BA
:106F5000F08088004F0478000000060000C0EB00BD
:106F6000D2F4B700F5C0B3008002FD00CCF4B70046
:106F70008002FD00F4C5B3000002FD00CDF4B700AF
:106F80000002FD0073C0B3008001FD00D0F4B70023
:106F90008001FD00F2C3B3000001FD00CEF4B70094
:106FA0000001FD00CFF4B70031C3B3008000FD0045
:106FB000D1F4B7008000FD00D9F4B7008002FD00D5
:106FC000D3F4B7008002FD000002FD00D4F4B70046
:106FD0000002FD008001FD00D7F4B7008001FD0034
:106FE0000001FD00D5F4B7000001FD00D6F4B700A4
:106FF00001007800D8F4B70000000600881F780070
:10700000E0C0B3003DF2B70030C7B3003EF2B700B6
:107010000044EB000004FD003FF2B7000004FD0057
:107020006540500040F2B7000004FD0041F2B70097
:107030000004FD007640500042F2B70008007800DE
:1070400043F2B70030C1B30044F2B70013C0B3003D
:107050000300780045F2B70008417800800B20005B
:1070600001002000F130070046F2B7004800DE00C2
:1070700047F2B7008841780008417800602220007C
:1070800001002000E930070048F2B7004800DE00A8
:1070900049F2B70090C5B3004AF2B7000800780083
:1070A0004BF2B7004F04780000000600881F7800FC
:1070B000E0C0B3004CF2B70060CEB3004DF2B700B1
:1070C0000044EB00080078004EF2B70040CFB30058
:1070D0004FF2B70012C0B3000200780050F2B700C0
:1070E000A0C5B30051F2B7000800780052F2B70013
:1070F00088417800204E200001002000CB3007009E
:1071000053F2B7004800DE0054F2B700884178001F
:1071100008417800E005200001002000C33007008E
:1071200055F2B7004800DE0056F2B70088417800FB
:1071300022C0B300409C200001002000BB300700AB
:1071400057F2B7004800DE0058F2B700B0C5B300F0
:1071500059F2B700080078005AF2B7004F047800DF
:1071600000000600D2D4BF0047F3B700CCD4BF0064
:1071700048F3B700CDD4BF0049F3B700CED4BF0069
:107180004AF3B700D0D4BF004BF3B700D1D4BF004F
:107190004CF3B700CFD4BF004DF3B700000006009A
:1071A0008180FB00810040000101E900820F500056
:1071B00006003E0080007800114078009258780068
:1071C00000517800828F5000FBFF3600000006005F
:1071D000889FBE008A1F7800CE71EF00CF71EF004C
:1071E000D071EF00D171EF00D271EF00D371EF00D9
:1071F000D471EF00D571EF0088C0B30008007800AB
:10720000CDF1B700E01C210021272A00050009006C
:10721000315878001A0120000A0178008000EB0044
:10722000601D21003DF3070009C1B300090078008B
:10723000D6F1B700701D210091272A000F00090028
:1072400031587800E871EF00E971EF00EA71EF0062
:10725000EB71EF00EC71EF00ED71EF00EE71EF00FC
:10726000EF71EF0008007800E7F1B700220020007E
:10727000B18E2000801E210036F307000A0178003D
:107280008000EB00001F210024F3070009007800B4
:10729000F0F1B700101F2100A1282A000400090006
:1072A00031587800F20120008000EB00A02021007E
:1072B0001AF30700E0C1B3000AF2B700F2002000A1
:1072C000418E2000B020210022F307000672EF005B
:1072D0000772EF000872EF000972EF0008007800F3
:1072E00001F2B70090CCB300ED48B4000080FB0081
:1072F000A2002000110009000280D8000043B00065
:1073000002F2B7000143B0000100780003F2B700B9
:10731000EEC8BF0004F2B700EFC8BF0005F2B70027
:107320004F0578004F04BE00000006000200FA007E
:107330008041EB0003417800801020000100200014
:107340003A300700F0BF9F006FF897002BF2B700AC
:107350007FF897002CF2B7008041EB0003417800E2
:10736000400B20000100200030300700F0BF9F00DC
:107370006FF8970029F2B7007FF897002AF2B7005C
:107380008010200020EE8800400B200030EE8800A6
:1073900073C0B300B2CFB30000742000010020001E
:1073A00022300700F0BF9F006FF897002DF2B70062
:1073B0007FF897002EF2B7008041EB0022C0B300A7
:1073C000409C20000100200018300700F0BF9F0003
:1073D0006FF8970037F2B7007FF8970038F2B700E0
:1073E0008041EB0022C0B300409C2000010020003F
:1073F0000E300700F0BF9F006FF897004EF3B70004
:107400007FF897004FF3B7008041EB0022C0B30034
:10741000E0AC20000100200004300700F0BF9F0016
:107420006FF897002FF2B7007FF8970030F2B7009F
:1074300000CE2000F0BF9F006FF8970033F2B70036
:107440007FF8970034F2B70000C22000F0BF9F0021
:107450006FF8970031F2B7007FF8970032F2B7006B
:1074600073C0B300E2CFB30000402600010020004B
:10747000EE2F0700F0BF9F006FF8970035F2B700BE
:107480007FF8970036F2B7008041EB0003417800A7
:10749000D002200001002000E42F0700F0BF9F0071
:1074A0006FF8970039F2B7007FF897003AF2B7000B
:1074B0008041EB00034178006000B800DB2F07003B
:1074C000F0BF9F006FF897003BF2B7007FF897007E
:1074D0003CF2B7008041EB0003417800200320001C
:1074E00001002000D12F0700F0BF9F006FF8970028
:1074F00008F3B7007FF8970009F3B7008041EB006D
:1075000003417800A005200001002000C72F0700DC
:10751000F0BF9F006FF897000AF3B7007FF897005D
:107520000BF3B700B5FE0700E0FE07000DFF0700F4
:1075300027FF07000080FA0000000600889FBE00B9
:107540008A9FBE008044EB000900780019F3B70061
:107550001A73EF001B73EF001C73EF003473EF001E
:107560003573EF003673EF003773EF003873EF00B9
:107570003973EF003A73EF003B73EF003C73EF0099
:107580008F72EF009072EF009172EF009272EF0035
:107590009372EF009472EF009572EF009672EF0015
:1075A0009772EF009872EF009972EF006055B80083
:1075B0007273EF007373EF007473EF0048C0B30091
:1075C0000800780071F3B700806D8000916D800035
:1075D000A0A78800B1A7880042002000414F2100E9
:1075E000203721005BF20700CAA78800DBA78800CC
:1075F0007773EF007873EF007973EF007A73EF0021
:107600000800780076F3B700EAA78800FBA7880097
:107610007C73EF007D73EF007E73EF007F73EF00EC
:10762000080078007BF3B700E0CBB30019F3B70094
:10763000E0C6B3001AF3B7008004FD001BF3B700E7
:107640001CF3B7008004FD0080C0B30034F3B70022
:107650005133210000292A0007000900B0587800A2
:107660001200200041DB20006033210039F20700C6
:10767000A0C0B3008FF2B7000129210090292A0091
:1076800009000900B058780070F3EF0033FE0700DE
:107690001D73EF001E73EF001F73EF002073EF00E8
:1076A0008004FD0021F3B7003EF3B7003DF3B700BF
:1076B0008004FD00317FAB0004003A00220020006E
:1076C00081DB20007033210022F207004F05BE004D
:1076D0004F04BE0000000600889FBE008A1F78008D
:1076E0008001780010032000808F510004003E00CC
:1076F0003E13A8003E33A9003E53A90020003700E6
:10770000C2F980000210B2000300320070C0B30062
:107710003EF3B7002F0037003E13A900000A2000F7
:10772000808F51000E0036003E33A8006A004000F2
:10773000808F51000C0036008033AB000600320011
:10774000E0F6210012C0B300904F110002003A0091
:10775000163CA80004003700163CA90002003700C0
:107760003E33A900163CA90070C3B30080CF50007F
:10777000020036003E53A800010037003E53A90026
:10778000C2F980000210B20012003A00400B200043
:10779000808F51000300360010C0B3002CF0B700FA
:1077A00004003700B0032000808F510001003E002C
:1077B0002C70EF0049EE800088EE80006AEE8000B9
:1077C000A7EE8000E4EE8000C6EE80000001EB0032
:1077D00010003700E00B2000808F510003003600BE
:1077E00010C0B3002CF0B70004003700B003200035
:1077F000808F510001003E002C70EF0059EE800098
:1078000098EE80007AEE8000B7EE8000F4EE800003
:10781000D6EE800085F98000004020008080620064
:107820001C003200830F52001A0036000200E000F4
:107830000B003A0042818800518180003006200010
:10784000808F500003003600E0B4A8006C5FA800F1
:10785000160037000100E80050818800130037004F
:107860002A30EF004181800070072000808F500097
:10787000050036000508A3000C003200ECB4A80097
:107880006C5FA800090037000100E8004081880013
:10789000060037000000EB0050818800408188001E
:1078A0006C5FA9000100E00026003200838F5300C6
:1078B00024003600F0F68000018023000100600003
:1078C00020003A000200E0000E003A002281880009
:1078D0000200780022F0B7003181800030062000DD
:1078E000808F500004003600E094A800387FA80084
:1078F0006C1FA800300037000100E80030818800CC
:107900002D0037000000EB003081880022F0B70026
:107910002181800070072000808F50000600360013
:107920000508A30024003200EC94A800387FA800CA
:107930006C1FA800200037000100E80020818800AB
:107940001D003700830F530017003E0022D0BF00F8
:10795000E94F500011003600387FA9006C1FA900C4
:107960000000EB003081880020818800391FAB00C7
:1079700005003A00E0D4BF0001CCB3000140600034
:10798000E0F4B7000C003700ECD4BF0001CCB3002A
:1079900001406000ECF4B700070037000040E80049
:1079A00022F0B700040037002270EF000000EB0067
:1079B0003081880020818800830F54000700310047
:1079C000391FAB0002003A00E0D4A80001003700E4
:1079D000ECD4A8006C7FA800010037006C7FA900E0
:1079E000838F540008003100391FAB0002003A00B9
:1079F000E0F4A80001003700ECF4A800385FA8000C
:107A00006C3FA8000D003700830F55000B003600B7
:107A1000385FA9006C3FA900391FAB0004003A0091
:107A2000E0D4BF000043B200E0F4B7000300370029
:107A3000ECD4BF000043B200ECF4B700F3C2BF00C7
:107A40000008A30006003200315FAB0010003200D6
:107A5000C1A98000C0032000808F50000C003600B8
:107A6000C1F980000110B20005003A0009DCBF0036
:107A7000C4F1B70001007800C5F1B7000700370076
:107A80000040EB00C4F1B700C5F1B70003003700B8
:107A90000040EB00C4F1B700C5F1B7003E13D500BC
:107AA000614060002DF0B7004F0578004F04BE0024
:107AB00000000600C1252100914078008180FB0074
:107AC0005DD2BF004800DD008080700000C1B300BF
:107AD0005EF2B7004080200080804000F025210049
:107AE0000F000900315878000101B10000000600C4
:107AF00032DEBF000080FB004201DD000280E800B2
:107B0000A3532100E0C079000104E000040032002A
:107B1000628079000181FB0071E3210006F107001A
:107B2000708180000103210081004000A229210012
:107B30001F000900B25878000102B1000002B00035
:107B40007081880001102000810F500008003A0069
:107B50002E30EF004080200001032100FF000900CB
:107B600031587800303FA80099FD0700D1FF070089
:107B700000000600881F780078E321001844780090
:107B800032DEBF000080FB004201DD000280E80021
:107B9000A3532100E0C079000104E000040032009A
:107BA000628079000181FB0071E32100E2F00700AF
:107BB00051108000E0052000808F500004003A0042
:107BC000511080000000E800808F5000100032004B
:107BD0000804E00002003A00363FEF0014003700CE
:107BE000E14F540003003A0010002000B0F9880073
:107BF0000F00370030D1BF00C2C0B3000440BC004A
:107C0000404E2100000141001260A0000800370032
:107C100010002000B0F9880030D1BF00C2C0B3000E
:107C20000440BC00404E2100000141001260A00051
:107C30004F04780000000600881F780032DEBF0085
:107C40000080FB004201DD000280E800A353210018
:107C5000E0C079000104E000040032006280790095
:107C60000181FB0071E32100B3F00700D83121004E
:107C70004200200088007800402A2A00CCF007004B
:107C80000000E00003003A00F214A8002173A900EC
:107C90002D0037004200200088007800902A2A003A
:107CA000C3F007000000E0000C003A002614A80012
:107CB00080417800E2CFB300C00D20000100200019
:107CC000DA2D07005FF1B7004800DE0060F1B70071
:107CD000902A200080EC88001B0037004200200022
:107CE00088007800E02A2A00B1F0070080007800C0
:107CF0000000E00012003A0010C0B30036F5B700F3
:107D00002614A8002634A9002654A8002674A8002A
:107D10002694A80081417800E2CFB300C00D200076
:107D200001002000C12D07005FF1B7004800DE0010
:107D300060F1B700902A200080EC88000200370034
:107D4000F214A9002173A8004F0478000000060077
:107D500032DEBF000080FB004201DD000280E8004F
:107D6000A3532100E0C079000104E00004003200C8
:107D7000628079000181FB0071E321006EF0070051
:107D800021D3BF00E24F500003003A00F214AB00D1
:107D900001003200DFFEA8000000060032DEBF0056
:107DA0000080FB004201DD000280E800A3532100B7
:107DB000E0C079000104E000040032006280790034
:107DC0000181FB0071E321005BF007000000060069
:107DD00037DEBF0009003200E24F500007003200DA
:107DE00030D1BF00C2C0B3000440BC00404E2100EF
:107DF000000141001260A0002200370032DEBF0007
:107E00000080FB004201DD000280E800A353210056
:107E1000E0C079000104E0000400320062807900D3
:107E20000181FB0071E3210043F0070001382100CC
:107E30009140780066806000E20F50000C003A002C
:107E40003E33AB0008003200E0F6210012C0B30060
:107E5000904F110002003A00163CA80007003700BE
:107E6000163CA90005003700163CA90003003700A6
:107E70000000E00001003A00163CA9000100780073
:107E800080F3B7000000060032DEBF000080FB0078
:107E90004201DD000280E800A3532100E0C0790028
