:020000040000fa
:080000000002040000000000f2
:020000040000fa
:0400080002030000ef
:020000040000fa
:04000c0044030000a9
:020000040000fa
:040010008403000065
:020000040000fa
:0400140022030000c3
:020000040000fa
:04001800640300007d
:020000040000fa
:04001c00de030000ff
:020000040000fa
:04002000a403000035
:020000040000fa
:04002400de030000f7
:020000040000fa
:04002800de030000f3
:020000040000fa
:04002c00de030000ef
:020000040000fa
:04003000de030000eb
:020000040000fa
:04003400de030000e7
:020000040000fa
:04003800de030000e3
:020000040000fa
:04003c00de030000df
:020000040000fa
:04004000de030000db
:020000040000fa
:04004400de030000d7
:020000040000fa
:04004800de030000d3
:020000040000fa
:04004c00de030000cf
:020000040000fa
:04005000de030000cb
:020000040000fa
:04005400de030000c7
:020000040000fa
:04005800de030000c3
:020000040000fa
:04005c00de030000bf
:020000040000fa
:04006000de030000bb
:020000040000fa
:04006400de030000b7
:020000040000fa
:04006800de030000b3
:020000040000fa
:04006c00de030000af
:020000040000fa
:04007000de030000ab
:020000040000fa
:04007400de030000a7
:020000040000fa
:04007800de030000a3
:020000040000fa
:04007c00de0300009f
:020000040000fa
:04008000de0300009b
:020000040000fa
:04008400de03000097
:020000040000fa
:04008800de03000093
:020000040000fa
:04008c00de0300008f
:020000040000fa
:04009000de0300008b
:020000040000fa
:04009400de03000087
:020000040000fa
:04009800de03000083
:020000040000fa
:04009c00de0300007f
:020000040000fa
:0400a000de0300007b
:020000040000fa
:0400a400de03000077
:020000040000fa
:0400a800de03000073
:020000040000fa
:0400ac00de0300006f
:020000040000fa
:0400b000de0300006b
:020000040000fa
:0400b400de03000067
:020000040000fa
:0400b800de03000063
:020000040000fa
:0400bc00de0300005f
:020000040000fa
:0400c000de0300005b
:020000040000fa
:0400c400de03000057
:020000040000fa
:0400c800de03000053
:020000040000fa
:0400cc00de0300004f
:020000040000fa
:0400d000de0300004b
:020000040000fa
:0400d400de03000047
:020000040000fa
:0400d800de03000043
:020000040000fa
:0400dc00de0300003f
:020000040000fa
:0400e000de0300003b
:020000040000fa
:0400e400de03000037
:020000040000fa
:0400e800de03000033
:020000040000fa
:0400ec00de0300002f
:020000040000fa
:0400f000de0300002b
:020000040000fa
:0400f400de03000027
:020000040000fa
:0400f800de03000023
:020000040000fa
:0400fc00de0300001f
:020000040000fa
:04010000de0300001a
:020000040000fa
:04010400de03000016
:020000040000fa
:04010800de03000012
:020000040000fa
:04010c00de0300000e
:020000040000fa
:04011000de0300000a
:020000040000fa
:04011400de03000006
:020000040000fa
:04011800de03000002
:020000040000fa
:04011c00de030000fe
:020000040000fa
:04012000de030000fa
:020000040000fa
:04012400de030000f6
:020000040000fa
:04012800de030000f2
:020000040000fa
:04012c00de030000ee
:020000040000fa
:04013000de030000ea
:020000040000fa
:04013400de030000e6
:020000040000fa
:04013800de030000e2
:020000040000fa
:04013c00de030000de
:020000040000fa
:04014000de030000da
:020000040000fa
:04014400de030000d6
:020000040000fa
:04014800de030000d2
:020000040000fa
:04014c00de030000ce
:020000040000fa
:04015000de030000ca
:020000040000fa
:04015400de030000c6
:020000040000fa
:04015800de030000c2
:020000040000fa
:04015c00de030000be
:020000040000fa
:04016000de030000ba
:020000040000fa
:04016400de030000b6
:020000040000fa
:04016800de030000b2
:020000040000fa
:04016c00de030000ae
:020000040000fa
:04017000de030000aa
:020000040000fa
:04017400de030000a6
:020000040000fa
:04017800de030000a2
:020000040000fa
:04017c00de0300009e
:020000040000fa
:04018000de0300009a
:020000040000fa
:04018400de03000096
:020000040000fa
:04018800de03000092
:020000040000fa
:04018c00de0300008e
:020000040000fa
:04019000de0300008a
:020000040000fa
:04019400de03000086
:020000040000fa
:04019800de03000082
:020000040000fa
:04019c00de0300007e
:020000040000fa
:0401a000de0300007a
:020000040000fa
:0401a400de03000076
:020000040000fa
:0401a800de03000072
:020000040000fa
:0401ac00de0300006e
:020000040000fa
:0401b000de0300006a
:020000040000fa
:0401b400de03000066
:020000040000fa
:0401b800de03000062
:020000040000fa
:0401bc00de0300005e
:020000040000fa
:0401c000de0300005a
:020000040000fa
:0401c400de03000056
:020000040000fa
:0401c800de03000052
:020000040000fa
:0401cc00de0300004e
:020000040000fa
:0401d000de0300004a
:020000040000fa
:0401d400de03000046
:020000040000fa
:0401d800de03000042
:020000040000fa
:0401dc00de0300003e
:020000040000fa
:0401e000de0300003a
:020000040000fa
:0401e400de03000036
:020000040000fa
:0401e800de03000032
:020000040000fa
:0401ec00de0300002e
:020000040000fa
:0401f000de0300002a
:020000040000fa
:0401f400de03000026
:020000040000fa
:0401f800de03000022
:020000040000fa
:0401fc00de0300001e
:020000040000fa
:04020000de03000019
:020000040000fa
:04020400de03000015
:020000040000fa
:04020800de03000011
:020000040000fa
:04020c00de0300000d
:020000040000fa
:04021000de03000009
:020000040000fa
:04021400de03000005
:020000040000fa
:04021800de03000001
:020000040000fa
:04021c00de030000fd
:020000040000fa
:04022000de030000f9
:020000040000fa
:04022400de030000f5
:020000040000fa
:04022800de030000f1
:020000040000fa
:04022c00de030000ed
:020000040000fa
:04023000de030000e9
:020000040000fa
:04023400de030000e5
:020000040000fa
:04023800de030000e1
:020000040000fa
:04023c00de030000dd
:020000040000fa
:04024000de030000d9
:020000040000fa
:04024400de030000d5
:020000040000fa
:04024800de030000d1
:020000040000fa
:04024c00de030000cd
:020000040000fa
:04025000de030000c9
:020000040000fa
:04025400de030000c5
:020000040000fa
:04025800de030000c1
:020000040000fa
:04025c00de030000bd
:020000040000fa
:04026000de030000b9
:020000040000fa
:04026400de030000b5
:020000040000fa
:04026800de030000b1
:020000040000fa
:04026c00de030000ad
:020000040000fa
:04027000de030000a9
:020000040000fa
:04027400de030000a5
:020000040000fa
:04027800de030000a1
:020000040000fa
:04027c00de0300009d
:020000040000fa
:04028000de03000099
:020000040000fa
:04028400de03000095
:020000040000fa
:04028800de03000091
:020000040000fa
:04028c00de0300008d
:020000040000fa
:04029000de03000089
:020000040000fa
:04029400de03000085
:020000040000fa
:04029800de03000081
:020000040000fa
:04029c00de0300007d
:020000040000fa
:0402a000de03000079
:020000040000fa
:0402a400de03000075
:020000040000fa
:0402a800de03000071
:020000040000fa
:0402ac00de0300006d
:020000040000fa
:0402b000de03000069
:020000040000fa
:0402b400de03000065
:020000040000fa
:0402b800de03000061
:020000040000fa
:0402bc00de0300005d
:020000040000fa
:0402c000de03000059
:020000040000fa
:0402c400de03000055
:020000040000fa
:0402c800de03000051
:020000040000fa
:0402cc00de0300004d
:020000040000fa
:0402d000de03000049
:020000040000fa
:0402d400de03000045
:020000040000fa
:0402d800de03000041
:020000040000fa
:0402dc00de0300003d
:020000040000fa
:0402e000de03000039
:020000040000fa
:0402e400de03000035
:020000040000fa
:0402e800de03000031
:020000040000fa
:0402ec00de0300002d
:020000040000fa
:0402f000de03000029
:020000040000fa
:0402f400de03000025
:020000040000fa
:0402f800de03000021
:020000040000fa
:0402fc00de0300001d
:020000040000fa
:04030000de03000018
:020000040000fa
:04030400de03000014
:020000040000fa
:04030800de03000010
:020000040000fa
:04030c00de0300000c
:020000040000fa
:04031000de03000008
:020000040000fa
:04031400de03000004
:020000040000fa
:04031800de03000000
:020000040000fa
:04031c00de030000fc
:020000040000fa
:04032000de030000f8
:020000040000fa
:100400006f0221000eff22000e0188000000000094
:10041000000020000000e000020032000001200087
:100420002002880014000700e60007000000e0003a
:1004300003003a00607c2000010020000200370029
:100440000000200001002000810f70000100320038
:100450000f000700000020000000e0000200320052
:100460000000020000000000ec0702000000000095
:100470000040da000000fe00200020000000e00044
:1004800002003200100020009001880000000600e9
:10049000a1028800800478000000eb001f003700f4
:1004a000e284440054a0b4009905ba00e2844400f8
:1004b00054a0b4009906ba00e284440054a0b400e9
:1004c0000006eb00476fde00fd07b200ae018800ba
:1004d000636ce10003003a000ad801000000eb0061
:1004e0000e003700606ce10008003a00004deb00a0
:1004f0000a05e800020039003420ec000af0a000f0
:100500008b05e900f9ff3e00040037006168e10057
:10051000010032000086eb000b00070019c7ba008b
:100520000e04e0001905ba0003003a000a00e000da
:10053000dbff3a0000000600fe07b200ae028800b2
:100540008a047800f5ff37000cd0a300e20f4d00bd
:100550001c00390089027800354dba000a05e80010
:10056000020039003420ec000af0a0008b05e900fd
:100570000f003200254dba000a05e80002003900dc
:100580003420ec000af0a0008b05e90008003200de
:100590000c00e0000600320015cdba000a05e800a4
:1005a000020039003420ec000af0a0008b05e900bd
:1005b0008984e80054a0b4000b00e000e2ff3a0098
:1005c000000006009902ba00055d78008b05e9007d
:1005d000f7ff3200c82ade00055d78008b05e900d0
:1005e000f3ff32000c00e000f1ff320019ddba0029
:1005f000eeff3700660504000000000094050400cb
:10060000000000003600f800809fbe00829fbe0000
:10061000849fbe00869fbe000000fa00c028a9008b
:100620000000eb004d0207000080fa004f03be00ff
:100630004f02be004f01be004f00be003600f90061
:10064000004006003600f800809fbe00829fbe007a
:10065000849fbe00869fbe000000fa00440207008f
:10066000c048a900100020003c0207000080fa00ea
:100670004f03be004f02be004f01be004f00be0040
:100680003600f900004006003600f800809fbe00ea
:10069000829fbe00849fbe00869fbe000000fa00bd
:1006a000c068a900200020002c0207000080fa008a
:1006b0004f03be004f02be004f01be004f00be0000
:1006c0003600f900004006003600f800809fbe00aa
:1006d000829fbe00849fbe00869fbe000000fa007d
:1006e000c088a900300020001c0207000080fa002a
:1006f0004f03be004f02be004f01be004f00be00c0
:100700003600f900004006003600f800809fbe0069
:10071000829fbe00849fbe00869fbe000000fa003c
:10072000c608a900700020000c0207000080fa0033
:100730004f03be004f02be004f01be004f00be007f
:100740003600f900004006003600f800809fbe0029
:10075000829fbe00849fbe00869fbe000000fa00fc
:100760002146800000102000008060000000e000b2
:1007700003003200c508a900c0002000f7010700ef
:1007800020468000700060000000e000030032009e
:10079000c488a900a0002000f001070020468000c6
:1007a000610060000000e00003003200c408a900fe
:1007b000b0002000e9010700ffff37000040da0029
:0807c0000000fe00000005002e
:020000040000fa
:1007c8000000fa000023ef0000062000101888003f
:1007d8000423ef000623ef000823ef000a23ef00ad
:1007e8000c23ef000e23ef001023ef001223ef007d
:1007f8001423ef002023ef002223ef003823ef001b
:100808004023ef003a23ef004223ef003c23ef00a0
:100818004423ef003e23ef004623ef000040200072
:10082800501b880000402000701b8800a023ef00a8
:10083800a423ef00c023ef00d023ef00d223ef0062
:10084800d423ef00d823ef00dc23ef00e023ef00f0
:1008580000302000b01e880000302000d01e880024
:1008680000302000f01e880000302000101f880093
:1008780010002000801f8800f223ef000224ef0000
:10088800605620009200070040592000a800070089
:100898001120800000f02000010070001020880066
:1008a80001e3a8006f000700790007008023ef002c
:1008b8008223ef008423ef008623ef008823ef00d4
:1008c80000202000501c88008c23ef008e23ef00ae
:1008d8009023ef009223ef009423ef000080fa00aa
:1008e800000006000000fa000004a8000000000054
:1008f8000120800000102000008060000000e0005f
:10090800fbff32000a03a8000080fa00000006007e
:100918000000fa000424a8000444a9000404a80064
:1009280000000000212080000008200000806000f6
:100938000000e000fbff32000424a9000080fa0058
:10094800000006000000fa000024a80000000000d3
:100958000120800000202000008060000000e000ee
:10096800fbff32000a23a8000080fa0000000600fe
:100978000000fa000524a8000544a9000504a80001
:100988000000000021208000000028000080600096
:100998000000e000fbff32000524a9000080fa00f7
:1009a800000006000000fa000044a8000000000053
:1009b8000120800000402000008060000000e0006e
:1009c800fbff32000a43a8000080fa00000006007e
:1009d8000000fa000624a8000644a9000604a8009e
:1009e8000000000031208000000820000080600026
:1009f8000000e000fbff32000624a9000080fa0096
:100a0800000006000000fa000064a80000000000d2
:100a18000120800000802000008060000000e000cd
:100a2800fbff32000a63a8000080fa0000000600fd
:100a38000000fa000724a8000744a9000704a8003a
:100a480000000000312080000000280000806000c5
:100a58000000e000fbff32000724a9000080fa0034
:100a6800000006000000fa0000e4a80000000000f2
:100a78000120800000002800008060000000e000e5
:100a8800fbff32000ae3a8000080fa00000006001d
:100a98000000fa000b24a8000b44a9000b04a800ce
:100aa8000000000051208000000028000080600045
:100ab8000000e000fbff32000b24a9000080fa00d0
:100ac800000006000000fa000080fa00000006009e
:100ad8000200fa00000f78001e00780000808800ed
:100ae8000080fa00000006000000fa0001408000c3
:100af80000002200008060000000e00006003200d4
:100b0800008080000000e0000200320000808000c9
:100b18000000010001a8a9000080fa0000000600fa
:100b28000200fa00000f78000080fa0000000600ba
:100b38000200fa00000f78001e007800108088007c
:100b48000080fa00000006000200fa008119800007
:100b580000802000008060000000e00008003200f3
:100b680011218000010f7800108080000000e00053
:100b780003003200118080001e007800010001008f
:100b88000080fa00000006000000fa00003a800029
:100b98000080fa00000006000200fa00faff0700d1
:100ba800000f78001e007800240007000004e00011
:100bb8000200320000002800710007001e007800c3
:100bc8002a0007000004e0000200320000002400b0
:100bd8006b0007001e007800320007000004e000e8
:100be8000200320000202000650007001e00780087
:100bf8003a0007000004e00002003200000820006c
:100c08005f0007001e007800420007000004e000b3
:100c18000200320000042000590007001e0078007e
:100c28004a0007000004e000020032000001200032
:100c3800530007000080fa00000006000400fa00d4
:100c4800100798000040eb00004f78001e0090004d
:100c58000000e00002003d0010c0b300004f780023
:100c68001e4078000080fa00000006000400fa0028
:100c7800100798000040eb00004f78009e0090009d
:100c880000002400008060000000e0000200320044
:100c980010c0b300004f78001e4078000080fa00b2
:100ca800000006000400fa00100798000040eb005e
:100cb800004f78009e009000002020000080600017
:100cc8000000e0000200320010c0b300004f7800be
:100cd8001e4078000080fa00000006000400fa00b8
:100ce800100798000040eb00004f78009e0090002d
:100cf80000082000008060000000e00002003200d0
:100d080010c0b300004f78001e4078000080fa0041
:100d1800000006000400fa00100798000040eb00ed
:100d2800004f78009e0090000004200000806000c2
:100d38000000e0000200320010c0b300004f78004d
:100d48001e4078000080fa00000006000400fa0047
:100d5800100798000040eb00004f78001e0090003c
:100d6800700060000000e0000200320010c0b30014
:100d7800004f78001e4078000080fa00000006004e
:100d88000200fa00000f78009e80ea00003a800016
:100d980000806000003a88000080fa000000060029
:100da8000000fa004027ef000080fa00000006006b
:100db8000000fa0000042300203a88004827ef00ca
:100dc80000002800703a880020032000303a88008c
:100dd80000742a00803a88004c27ef006027ef0053
:100de8006227ef006427ef006a27ef006c27ef0007
:100df8006e27ef007200200080072000a109200064
:100e0800337420008049780081497800824978004d
:100e18000001eb006004200071052000237420000d
:100e28008049780081497800824978000080fa007a
:100e3800000006000000fa00803a80004e00de0044
:100e4800614060000080fb0000f0a7000000ea009d
:100e58000000ea004f00de00004078000080fa0041
:100e6800000006000000fa00042eef00142eef0028
:100e7800242eef00342eef00f001200000708800cf
:100e8800b0bf2f0080708800f07f2f0000718800ad
:100e98000080eb00807188000c2eef001c2eef0004
:100ea8002c2eef003c2eef000a2eef001a2eef003a
:100eb8002a2eef003a2eef00062eef00162eef0036
:100ec800262eef00362eef0070002000707088008c
:100ed800b02e2000f07088006067210070718800d3
:100ee800401a2200f07188000080fa000000060015
:100ef8000200fa00000f780021028000200f200075
:100f0800008060001e007000200288000080fa0047
:100f1800000006000000fa00c3e8a8000000000076
:100f2800000000000080fa00000006000000fa003f
:100f3800ccff07009eff07001d00070020fe0700ea
:100f4800f4ff070000022000e9ff07000080fa0014
:100f5800000006000200fa00000f78009e007800ea
:100f680021808800ffff37000000fa0060002100a0
:100f780080077800e0012100000188000080fa0065
:040f8800000006005f
:020000040000fa
:100f8c00061000002000000080000000041000008b
:100f9c000200000082000000ffff000000100000b3
:0c0fac00040000008000000000000000b5
:020000040000fa
:100fb8000000fa00f144800080ff2f0000806000ec
:100fc8000000a000f04488000080fa00000006003d
:0c0fd8000000fa00d5ff0700ffff370003
:020000040000fa
:020000040002f8
:04af0000ffff00004f
:020000040000fa
:020000040002f8
:04af2000ff1f00000f
:020000040000fa
:020000040002f8
:04af30007fffff00a0
:020000040000fa
:020000040002f8
:04af38007fffff0098
:020000040000fa
:020000040002f8
:04af40009fffff0070
:020000040000fa
:020000040002f8
:04af5000ddffff0022
:020000040000fa
:020000040002f8
:04af5800ffffff00f8
:020000040000fa
:020000040002f8
:04af6000ffffff00f0
:020000040000fa
:020000040002f8
:04aff800ff0f000047
:020000040000fa
:020000040100f9
:04200000ffffff00df
:00000001FF
