:020000040000fa
:080000000002040000000000f2
:020000040000fa
:04000800ae03000043
:020000040000fa
:04000c00ae0300003f
:020000040000fa
:04001000ae0300003b
:020000040000fa
:04001400ae03000037
:020000040000fa
:04001800ae03000033
:020000040000fa
:04001c00ae0300002f
:020000040000fa
:04002000ae0300002b
:020000040000fa
:04002400ae03000027
:020000040000fa
:04002800ae03000023
:020000040000fa
:04002c00ae0300001f
:020000040000fa
:04003000ae0300001b
:020000040000fa
:0400340006030000bf
:020000040000fa
:04003800ae03000013
:020000040000fa
:04003c00ae0300000f
:020000040000fa
:04004000ae0300000b
:020000040000fa
:04004400ae03000007
:020000040000fa
:04004800ae03000003
:020000040000fa
:04004c00ae030000ff
:020000040000fa
:04005000ae030000fb
:020000040000fa
:04005400ae030000f7
:020000040000fa
:04005800ae030000f3
:020000040000fa
:04005c00ae030000ef
:020000040000fa
:04006000ae030000eb
:020000040000fa
:04006400ae030000e7
:020000040000fa
:04006800ae030000e3
:020000040000fa
:04006c00ae030000df
:020000040000fa
:04007000ae030000db
:020000040000fa
:04007400ae030000d7
:020000040000fa
:04007800ae030000d3
:020000040000fa
:04007c00ae030000cf
:020000040000fa
:04008000ae030000cb
:020000040000fa
:04008400ae030000c7
:020000040000fa
:04008800ae030000c3
:020000040000fa
:04008c00ae030000bf
:020000040000fa
:04009000ae030000bb
:020000040000fa
:04009400ae030000b7
:020000040000fa
:04009800ae030000b3
:020000040000fa
:04009c00ae030000af
:020000040000fa
:0400a000ae030000ab
:020000040000fa
:0400a400ae030000a7
:020000040000fa
:0400a800ae030000a3
:020000040000fa
:0400ac00ae0300009f
:020000040000fa
:0400b000ae0300009b
:020000040000fa
:0400b400ae03000097
:020000040000fa
:0400b800ae03000093
:020000040000fa
:0400bc00ae0300008f
:020000040000fa
:0400c000ae0300008b
:020000040000fa
:0400c400ae03000087
:020000040000fa
:0400c800ae03000083
:020000040000fa
:0400cc00ae0300007f
:020000040000fa
:0400d000ae0300007b
:020000040000fa
:0400d400ae03000077
:020000040000fa
:0400d800ae03000073
:020000040000fa
:0400dc00ae0300006f
:020000040000fa
:0400e000ae0300006b
:020000040000fa
:0400e400ae03000067
:020000040000fa
:0400e800ae03000063
:020000040000fa
:0400ec00ae0300005f
:020000040000fa
:0400f000ae0300005b
:020000040000fa
:0400f400ae03000057
:020000040000fa
:0400f800ae03000053
:020000040000fa
:0400fc00ae0300004f
:020000040000fa
:04010000ae0300004a
:020000040000fa
:04010400ae03000046
:020000040000fa
:04010800ae03000042
:020000040000fa
:04010c00ae0300003e
:020000040000fa
:04011000ae0300003a
:020000040000fa
:04011400ae03000036
:020000040000fa
:04011800ae03000032
:020000040000fa
:04011c00ae0300002e
:020000040000fa
:04012000ae0300002a
:020000040000fa
:04012400ae03000026
:020000040000fa
:04012800ae03000022
:020000040000fa
:04012c00ae0300001e
:020000040000fa
:04013000ae0300001a
:020000040000fa
:04013400ae03000016
:020000040000fa
:04013800ae03000012
:020000040000fa
:04013c00ae0300000e
:020000040000fa
:04014000ae0300000a
:020000040000fa
:04014400ae03000006
:020000040000fa
:04014800ae03000002
:020000040000fa
:04014c00ae030000fe
:020000040000fa
:04015000ae030000fa
:020000040000fa
:04015400ae030000f6
:020000040000fa
:04015800ae030000f2
:020000040000fa
:04015c00ae030000ee
:020000040000fa
:04016000ae030000ea
:020000040000fa
:04016400ae030000e6
:020000040000fa
:04016800ae030000e2
:020000040000fa
:04016c00ae030000de
:020000040000fa
:04017000ae030000da
:020000040000fa
:04017400ae030000d6
:020000040000fa
:04017800ae030000d2
:020000040000fa
:04017c00ae030000ce
:020000040000fa
:04018000ae030000ca
:020000040000fa
:04018400ae030000c6
:020000040000fa
:04018800ae030000c2
:020000040000fa
:04018c00ae030000be
:020000040000fa
:04019000ae030000ba
:020000040000fa
:04019400ae030000b6
:020000040000fa
:04019800ae030000b2
:020000040000fa
:04019c00ae030000ae
:020000040000fa
:0401a000ae030000aa
:020000040000fa
:0401a400ae030000a6
:020000040000fa
:0401a800ae030000a2
:020000040000fa
:0401ac00ae0300009e
:020000040000fa
:0401b000ae0300009a
:020000040000fa
:0401b400ae03000096
:020000040000fa
:0401b800ae03000092
:020000040000fa
:0401bc00ae0300008e
:020000040000fa
:0401c000ae0300008a
:020000040000fa
:0401c40090030000a4
:020000040000fa
:0401c8007a030000b6
:020000040000fa
:0401cc00ae0300007e
:020000040000fa
:0401d000ae0300007a
:020000040000fa
:0401d400ae03000076
:020000040000fa
:0401d800ae03000072
:020000040000fa
:0401dc00ae0300006e
:020000040000fa
:0401e000ae0300006a
:020000040000fa
:0401e400ae03000066
:020000040000fa
:0401e800ae03000062
:020000040000fa
:0401ec003c030000d0
:020000040000fa
:0401f000ae0300005a
:020000040000fa
:0401f400ae03000056
:020000040000fa
:0401f800ae03000052
:020000040000fa
:0401fc00ae0300004e
:020000040000fa
:04020000ae03000049
:020000040000fa
:04020400ae03000045
:020000040000fa
:04020800ae03000041
:020000040000fa
:04020c00ae0300003d
:020000040000fa
:04021000ae03000039
:020000040000fa
:04021400ae03000035
:020000040000fa
:04021800ae03000031
:020000040000fa
:04021c00ae0300002d
:020000040000fa
:04022000ae03000029
:020000040000fa
:04022400ae03000025
:020000040000fa
:04022800ae03000021
:020000040000fa
:04022c00ae0300001d
:020000040000fa
:04023000ae03000019
:020000040000fa
:04023400ae03000015
:020000040000fa
:04023800ae03000011
:020000040000fa
:04023c00ae0300000d
:020000040000fa
:04024000ae03000009
:020000040000fa
:04024400ae03000005
:020000040000fa
:04024800ae03000001
:020000040000fa
:04024c00ae030000fd
:020000040000fa
:04025000ae030000f9
:020000040000fa
:04025400ae030000f5
:020000040000fa
:04025800ae030000f1
:020000040000fa
:04025c00ae030000ed
:020000040000fa
:04026000ae030000e9
:020000040000fa
:04026400ae030000e5
:020000040000fa
:04026800ae030000e1
:020000040000fa
:04026c00ae030000dd
:020000040000fa
:04027000ae030000d9
:020000040000fa
:04027400ae030000d5
:020000040000fa
:04027800ae030000d1
:020000040000fa
:04027c00ae030000cd
:020000040000fa
:04028000ae030000c9
:020000040000fa
:04028400ae030000c5
:020000040000fa
:04028800ae030000c1
:020000040000fa
:04028c00ae030000bd
:020000040000fa
:04029000ae030000b9
:020000040000fa
:04029400ae030000b5
:020000040000fa
:04029800ae030000b1
:020000040000fa
:04029c00ae030000ad
:020000040000fa
:0402a000ae030000a9
:020000040000fa
:0402a400ae030000a5
:020000040000fa
:0402a800ae030000a1
:020000040000fa
:0402ac00ae0300009d
:020000040000fa
:0402b000ae03000099
:020000040000fa
:0402b400ae03000095
:020000040000fa
:0402b800ae03000091
:020000040000fa
:0402bc00ae0300008d
:020000040000fa
:0402c000ae03000089
:020000040000fa
:0402c400ae03000085
:020000040000fa
:0402c800ae03000081
:020000040000fa
:0402cc00ae0300007d
:020000040000fa
:0402d000ae03000079
:020000040000fa
:0402d400ae03000075
:020000040000fa
:0402d800ae03000071
:020000040000fa
:0402dc00ae0300006d
:020000040000fa
:0402e000ae03000069
:020000040000fa
:0402e400ae03000065
:020000040000fa
:0402e800ae03000061
:020000040000fa
:0402ec00ae0300005d
:020000040000fa
:0402f000ae03000059
:020000040000fa
:0402f400ae03000055
:020000040000fa
:0402f800ae03000051
:020000040000fa
:100400008f3121000eff22000e0188000000000045
:10041000000020000000e000020032000001200087
:100420002002880014000700ce0007000000e00052
:1004300003003a00a06b22000100200002003700f8
:100440000000200001002000810f70000100320038
:100450000f000700000020000000e0000200320052
:100460000000020000000000302702000000000031
:100470000040da000000fe00200020000000e00044
:1004800002003200100020009001880000000600e9
:10049000a1028800800478000000eb001f003700f4
:1004a000e284440054a0b4009905ba00e2844400f8
:1004b00054a0b4009906ba00e284440054a0b400e9
:1004c0000006eb00476fde00fd07b200ae018800ba
:1004d000636ce10003003a000ad801000000eb0061
:1004e0000e003700606ce10008003a00004deb00a0
:1004f0000a05e800020039003420ec000af0a000f0
:100500008b05e900f9ff3e00040037006168e10057
:10051000010032000086eb000b00070019c7ba008b
:100520000e04e0001905ba0003003a000a00e000da
:10053000dbff3a0000000600fe07b200ae028800b2
:100540008a047800f5ff37000cd0a300e20f4d00bd
:100550001c00390089027800354dba000a05e80010
:10056000020039003420ec000af0a0008b05e900fd
:100570000f003200254dba000a05e80002003900dc
:100580003420ec000af0a0008b05e90008003200de
:100590000c00e0000600320015cdba000a05e800a4
:1005a000020039003420ec000af0a0008b05e900bd
:1005b0008984e80054a0b4000b00e000e2ff3a0098
:1005c000000006009902ba00055d78008b05e9007d
:1005d000f7ff3200c82ade00055d78008b05e900d0
:1005e000f3ff32000c00e000f1ff320019ddba0029
:1005f000eeff3700000000000000000000000000d7
:100600000000000000000000000000003600f800bc
:10061000809fbe00829fbe00849fbe00869fbe005a
:100620000000fa00808680000000e0000200320036
:1006300080868000000001007031210010407800a9
:100640008040e800703121000148780060312100cd
:1006500011c0b300014878000068a9000080fa00ca
:100660004f03be004f02be004f01be004f00be0050
:100670003600f900004006003600f800809fbe00fa
:10068000829fbe00849fbe00869fbe003200f8009d
:100690003400f80010002000a001880010002000a5
:1006a00090018800000000000200fa009120800004
:1006b000010f7800908680000000e0000300320007
:1006c000918680001e007800010001000e28a9001c
:1006d0000080fa003400f9003200f9004f03be0038
:1006e0004f02be004f01be004f00be003600f900b1
:1006f00000400600801f78000000fa00048ea90068
:10070000008ea800a08680000060a100a08688005e
:100710000d08a9000080fa004f0078000040060094
:10072000801f78000000fa00b08680006200600040
:100730000000e00005003a00048ea900008ea80029
:10074000a08680000060a100a08688000ce8a900b7
:100750000080fa004f007800004006000040da00f8
:100760000000fe0000000500140020000400370017
:10077000f4ff2f00020037006011b8001b003700a3
:10078000889fbe008a9fbe00841f78006c0007000f
:100790004f00780011003300f0ff2f00838f6c00b2
:1007a00006003b00040565000a00a70008003700aa
:1007b00009f0a6001000200008003700820f540046
:1007c000838f5c00030039001000200001003e0010
:1007d0000000200009f0a7000000ea004f05be005d
:1007e0004f04be000000e00000000600889fbe002d
:1007f0008a9fbe00008270000402710004827100b2
:10080000260032000004be000200be006011b800e5
:100810006b092000950220000182cf000a003900f8
:100820000541b1000082cf00070039000541b10049
:100830000982cf00040039000541b1000882cf00d1
:10084000010039000541b10005425200120032009a
:100850000a003b0082817100610164008100d100c7
:100860000080d3008984d3000884d3008b05e8007e
:100870000442e800f7ff3a0007003700080444008c
:1008800089844c0000004800818048008b05e90005
:100890000442e900f9ff3a00030007004f05be00db
:1008a0004f04be000000060081002000618055005a
:1008b0000b003d000b00200061fe2f000100e10055
:1008c0001d00340082817100610164008904d1003f
:1008d0000884d3000000e800faff3a00710020000d
:1008e0006100640003007000020060000900320033
:1008f00061044400e0844c000988a5000500320032
:100900008b05e8006808e10002003a008904d10084
:100910000884d300f20f20000258e10005003d00da
:10092000c75ddd00f907b200898075000800780016
:10093000000006000bf827008b007800000005007f
:100940000004be00060007000003be000405be0050
:100950000200be0002000700844f75000000060080
:10096000c70ade00f107b200f50fb200080032003e
:10097000e1cf4200020032000170a0002400050017
:10098000810f7000010032000408050044000500da
:10099000810f700002003a00140005008502e90092
:1009a0000000400081c04800fcff3b000170a00037
:0409b000240005001a
:020000040000fa
:1009b4000000fa00d08b80000000e800d08b880093
:1009c400b18b800040848000808f50000200310091
:1009d40040848000b08b8800c18b800050848000ec
:1009e400808f50000200310050848000c08b88004a
:1009f400b08680004a00de00e1406000b0868000de
:100a04004800de006140600080cf500013003200d7
:100a1400d18b800060022000808f50000c003600d3
:100a2400d18b800070032000808f500008003e00ae
:100a3400b08b800050888800c08b8000608888005c
:100a44000000eb00b08b88000000eb00c08b880036
:100a54000000eb00d08b88000e003700d18b8000a3
:100a640080032000808f50000a003600b08b800085
:100a740050888800c08b8000608888000000eb00ec
:100a8400b08b88000000eb00c08b88000000eb00f6
:100a9400d08b8800b08680004800de006140600092
:100aa4000080fb00610060004a00dd00b186800028
:100ab40001a0a10001007000b0868800c0868000fb
:100ac400610060000000e00024003a0041848000de
:100ad400100e2000808f500014003e00f18580002d
:100ae400b0838000808f500005003600c0868000ef
:100af4000000a000c0868800be30ef00030037006d
:100b0400f08580000000e800f0858800f185800011
:100b140050092000808f500010003600c0868000ed
:100b24000060a000c08688000c003700f0858000bb
:100b3400f10f500003003600c08680000060a10061
:100b4400c0868800f08580000000e00003003200c9
:100b5400f08580000000e900f0858800c0868000f0
:100b6400620060000000e00020003a004184800040
:100b7400e0562000808f500014003e000186800063
:100b8400f00a2000808f500005003600c0868000e7
:100b94000010a000c0868800c030ef0003003700ba
:100ba400008680000000e80000868800018680003e
:100bb40060092000808f50000c003600c086800041
:100bc4000060a000c086880008003700018680000d
:100bd40060092000808f500003003600c08680002a
:100be4000060a100c0868800c030ef00c08680008d
:100bf400640060000000e00016003a0041848000b8
:100c0400c0c62000808f50000c0036001086800083
:100c1400e20f500005003600c08680000020a000ce
:100c2400c0868800c230ef000a00370010868000ba
:100c34000000e80010868800060037001086800057
:100c44000000e00003003200108680000000e9008c
:100c540010868800a0868000620060000000e0002a
:100c640014003200c0868000610060000000e000d3
:100c74000c003a00c0868000620060000000e000c2
:100c840008003a00c0868000640060000000e000b4
:100c940004003a00c0868000680060000000e000a4
:100ca40004003200a08680000010a100a086880005
:100cb400148ea8000080fa00000006000000fa006c
:100cc400c186800000002100008060000000e00078
:100cd40010003a0031848000c0962000808f5000bc
:100ce4000b003e00c08580000000e800c08588003d
:100cf400c0858000f80f500006003600c0868000d2
:100d040000c0a000c0868800b830ef0001003700a2
:100d1400b830ef00c186800000002200008060002f
:100d24000000e00010003a003184800010a9200087
:100d3400808f50000b003e00d08580000000e8004a
:100d4400d0858800d0858000e20f50000600360070
:100d5400c086800000d0a000c0868800ba30ef00b2
:100d640001003700ba30ef00c18680000000210086
:100d7400008060000000e00005003a00c1868000a9
:100d840000002200008060000000e0001b00320030
:100d94003184800060bb2000808f50001600360034
:100da400a186800000042000008060000000e000b4
:100db40011003200e08580000000e800e085880032
:100dc400c0838000ea004000e0858000808f5000ee
:100dd4000a003100c086800000c0a100c0868800df
:100de400c086800000d0a100c0868800bc30ef001f
:100df4007830ef0001003700bc30ef00a120800004
:100e0400e0eb2000808f500004003600c086800094
:100e140000e0a000c086880007003700a120800001
:100e240070ff2000808f500003003e00c0868000c9
:100e340000e0a100c0868800a086800064006000f5
:100e44000000e0000f003200c18680000000220094
:100e5400008060000000e00005003a00c1868000c8
:100e640000002100008060000000e0001300320058
:100e7400a08680000020a100a0868800146ea8002f
:100e84000e003700c1868000000022000080600050
:100e94000000e00009003a00c18680000000210043
:100ea400008060000000e00004003a00a08680009a
:100eb4000020a000a0868800146ea9000080fa001b
:100ec400000006000000fa00881f7800c086800039
:100ed400680060000000e0002e003a006087800097
:100ee4008000eb0023fe070018c0b30002002000be
:100ef400c34824001bfe07000000e0000100350089
:100f04000044eb000804e000140032006185800016
:100f140080252000808f500005003600c0868000a8
:100f24000030a000c0868800ac30ef00030037001a
:100f3400608580000000e80060858800618580008d
:100f440040062000808f500013003600c0868000c9
:100f54000060a000c08688000f0037006185800013
:100f640040062000808f500003003600c0868000b9
:100f74000060a100c0868800608580000000e00059
:100f840005003200608580000000e900608588006b
:100f940001003700ac30ef00c086800070006000b4
:100fa4000000e00012003a0061878000008c2000fd
:100fb400808f50000c003600708580000000e8002f
:100fc400708588007185800040062000808f500065
:100fd40018003600c08680000040a000c08688004b
:100fe400ae30ef0013003700ae30ef0011003700d1
:100ff40061878000f0862000808f50000c003e0046
:10100400708580000000e80070858800718580008c
:10101400800c2000808f500006003600c0868000bf
:101024000040a100c0868800ae30ef000100370008
:10103400ae30ef00c1868000001020000080600008
:101044000000e0001e003a00608780008000eb0092
:10105400c8fd070018c0b30002002000f3422400ba
:10106400c0fd07000000e000010035000044eb0073
:101074000804e00010003200c086800068006000b0
:101084000000e0000c003a00808580000000e800c9
:101094008085880081858000a0282000808f5000f2
:1010a40020003600c08680000080a000c086880032
:1010b400b030ef001b003700b030ef0019003700ec
:1010c400608780008000eb00aafd070018c0b30011
:1010d400f2ff2b0073432400a4fd07000000e0008e
:1010e40001003c000044eb000804e0000c00320066
:1010f400808580000000e80080858800818580006c
:10110400800c2000808f500006003600c0868000ce
:101114000080a100c0868800b030ef0001003700d5
:10112400b030ef00c1868000002020000080600005
:101134000000e00016003a006187800080892000ea
:10114400808f500010003600c08680007000600060
:101154000000e0000c003a00908580000000e800e8
:10116400908588009185800060092000808f500060
:1011740018003600c08680000090a000c086880059
:10118400b230ef0013003700b230ef001100370027
:1011940061878000f0862000808f50000c003e00a4
:1011a400908580000000e80090858800918580008b
:1011b400800c2000808f500006003600c08680001e
:1011c4000090a100c0868800b230ef000100370013
:1011d400b230ef00c1868000004020000080600033
:1011e4000000e00012003a007187800000482000ef
:1011f400808f50000c003600a08580000000e800bd
:10120400a0858800a1858000800c2000808f50007c
:1012140020003600c086800000a0a000c0868800a0
:10122400b430ef001b003700b430ef001900370072
:10123400708780008000eb004efd070018c0b300eb
:10124400a29929009348240046fd07000000e0000d
:10125400010035000044eb000804e0000c003200fb
:10126400a08580000000e800a0858800a18580009a
:10127400800c2000808f500006003600c08680005d
:1012840000a0a100c0868800b430ef000100370040
:10129400b430ef00a0868000620060000000e0002f
:1012a4002e003a006187800080572000808f500014
:1012b4002400360051888000b0c62000808f500082
:1012c40020003e00b185800040062000808f500041
:1012d40018003600a08680000010a000a0868800b8
:1012e400c08680000000a100c0868800c0868000ff
:1012f4000010a100c0868800c08680000020a100e4
:10130400c0868800c08680000030a100c0868800a6
:10131400c08680000060a100c0868800b630ef005f
:10132400a08680000010a000a0868800148ea9006a
:101334000a003700b08580000000e800b08588000e
:1013440006003700b08580000000e0000300320092
:10135400b08580000000e900b08588004f04780063
:101364000080fa00000006000000fa0051888000a6
:1013740050632000808f50002b003600a086800030
:10138400680060000000e00015003a00408580001d
:101394000000e800408588005088800080007800c4
:1013a4003084800080805000000f2000808f500027
:1013b4002f003c0041858000a00f2000808f50004a
:1013c4002b003600a830ef00a08680000030a0007b
:1013d400a0868800f0832b00306388002400370047
:1013e400a0868000700060000000e00020003a0049
:1013f400508580000000e8005085880051858000f9
:1014040040062000808f500019003600c0c9290012
:1014140030638800a08680000040a000a086880079
:10142400aa30ef00120037005188800070032000ba
:10143400808f50000e003e00a18680000004200032
:10144400008060000000e00009003a00a0868000ef
:101454000040a100a0868800a08680000030a10082
:10146400a0868800662cef00a830ef00aa30ef00b9
:101474000080fa00000006000000fa009dd0bf00c2
:101484000080fb00e10f50002f003200e20f5000fb
:10149400450032000000e0004d003a00a0868000c4
:1014a400620060000000e00020003200a08680009e
:1014b400680060000000e0001c003200f08480003e
:1014c400fe0f5000140036009e30ef00a08680000e
:1014d4000060a000a086880010c0b300a0f0b70090
:1014e400048ea900008ea90010c0b3009df0b700bf
:1014f4006187800000322000808f50000400360095
:10150400608780000032b100c08388000500370086
:101514007830ef0003003700f08480000000e8001a
:10152400f08488000000000034003700f08480005c
:101534000000e0002a003200f08480000000e9008e
:10154400f08488002d003700a086800062006000cf
:101554000000e00005003200a186800000022000a7
:10156400008060000000e0001f003a001085800049
:101574000000e8001085880010858000e50f500009
:101584001b003600a230ef00048ea900008ea800d4
:10159400a08680000060a100a086880020c0b3005f
:1015a4009df0b70015003700208580000000e8009a
:1015b4002085880021858000803e2000808f500097
:1015c4000d0036009d70ef00a430ef000b003700d3
:1015d4009d70ef009e30ef00a230ef00070037004f
:1015e4000000000005003700000000000300370081
:1015f400000000000100370000000000a0d0bf0080
:10160400e14f50000e003a00308580000000e800f1
:101614003085880031858000b0122000808f500012
:1016240017003600a630ef00b08680000030a0001e
:10163400b086880020c0b300a0f0b70010003700c7
:10164400a0d0bf00e24f50000d003a00308580006a
:101654000000e8003085880031858000703e20005d
:10166400808f500006003600a630ef00b086800060
:101674000030a100b086880030c0b300a0f0b700ed
:101684000080fa00000006000000fa00a186800035
:1016940000402000008060000000e00032003a00ba
:1016a40050888000ea0f50002d003e00c084800066
:1016b4000000e800c084880050888000ea0f5000d1
:1016c4000c003e00c0848000e50f50003800360056
:1016d4009830ef00a086800000a0a000a0868800bb
:1016e40020332300310f2000608488007184880037
:1016f4002f00370050888000ea0f50000c003e0095
:10170400c0848000ee0f5000290036009830ef00ae
:10171400a086800000a0a000a086880020332300bb
:10172400310f200060848800718488002000370015
:10173400c0848000fd0f50001d0036009830ef007b
:10174400a086800000a0a000a0868800203323008b
:10175400310f2000608488007184880014003700f1
:101764009830ef001200370050888000eb0f5000d3
:101774000e003600c08480000000e800c0848800a9
:10178400c08480000000e00009003200a0868000d0
:1017940000a0a100a0868800a0472100e10e20003f
:1017a4006084880071848800010037009830ef005d
:1017b400a186800000102000008060000000e0008e
:1017c40024003a009a70ef009bd0bf00ea4f50000b
:1017d4001c003600a18680000040200000806000cc
:1017e4000000e0000b003a0090c4200060988800dc
:1017f40090c420007098880090c4200080988800cd
:1018040090c420009098880090c42000a09888007c
:101814000a00370090c420006098880090c420001b
:101824007098880090c420008098880090c420009c
:101834009098880090c42000a09888009b70ef00c6
:10184400170037009bd0bf000040e8009bf0b700b2
:10185400130037009b70ef009ad0bf00ea4f50008e
:101864000c00360090c420006098880090c42000ca
:101874007098880090c420008098880090c420004c
:101884009098880090c42000a09888009a70ef0077
:10189400030037009ad0bf000040e8009af0b70078
:1018a400a186800000042000008060000000e000a9
:1018b4000f003a0080988000e0838800b0868000a2
:1018c4000000a000b0868800b08680000010a00050
:1018d400b086880020c0b3009cf0b700b1868000b9
:1018e400f0f02f00008060000050a000b086880057
:1018f4000080fa00000006000800fa000000eb0077
:10190400000f7800f0878000b0848800b1848000e4
:10191400e0572000808f500024003600b1848000fe
:10192400b08480000100b8004409dd004c00de00f2
:1019340000007100cc08de000001780044a0220001
:10194400e501200024079800350798008e81e800ff
:101954002e029000be0290001100090042aad80095
:1019640081097800000f7800f0ff20009e007800c5
:10197400808f500003003600f0ff200010848800a0
:101984000c003700203320009e007800808f500028
:1019940003003e0030332000108488000500370027
:1019a4001e0078001084880002003700f0ff200039
:1019b400108488000080fa00000006000e00fa007f
:1019c40050079800610798000000eb00100798008a
:1019d4005e009000ee009000e00f5000e08f580091
:1019e4001e003200c0c0b300004f7800180037005a
:1019f4009e009000210798001e80fb000000e90073
:101a0400110020000008dd009e009000010070001d
:101a1400100798009e0090001e0090000180b900fd
:101a240030079800410798005e019000ee01900095
:101a34003e009000ce009000800f5100818f59002d
:101a440002003100ae009000110798001e4fe9001b
:101a54001e4078000004e000e5ff3a001e009000fc
:101a64000080fa00000006001800fa0050079800f1
:101a74006107980072079800030f9800140f9800ec
:101a84000000eb00000f78001e0890000000e0004a
:101a9400850032005e009000ee0090007e01900010
:101aa4008e0990006118b8000002be00240f98004f
:101ab400350f98001e0990008e0178002e0a9000c0
:101ac400be0a90001100090042aad80081097800da
:101ad400400798005e009000ee0090007e019000a8
:101ae4008e0990000200be000001be00f0ff2f002e
:101af40001002000020278000301780080017800d0
:101b04000100780003026200000061008000eb0025
:101b1400c000dd00000020000001be006120b8000c
:101b240000017100818171001e0078008000eb00cb
:101b3400c000dd0000002000020240008382480053
:101b4400240f9800350f98001e0990008e0178002c
:101b54002e0a9000be0a90001100090042aad80083
:101b640081097800300798005e009000ee00900034
:101b74007e0190008e0990000100780082007800b8
:101b84000001be00f0ff2f000100200002027800d7
:101b940003017800800178000100780003026200ec
:101ba400000061008000eb00c000dd0000002000a8
:101bb4000001be006120b800000171008181710044
:101bc4001e0078008000eb00c000dd000000200053
:101bd4000202400083824800240f9800350f9800c9
:101be4001e0990008e0178002e0a9000be0a900013
:101bf4001100090042aad800810978002007980042
:101c04005e019000ee019000f0ff2f000100200023
:101c14000202780003017800800178000100780056
:101c240003026200000061008000eb00c000dd00e0
:101c3400000020000001be006120b8000001710016
:101c4400818171001e0078008000eb00c000dd007f
:101c5400000020000202400083824800240f980004
:101c6400350f98001e0990008e0178002e0a90000e
:101c7400be0a90001100090042aad8008109780028
:101c8400100798002e0090008000eb00c001dd00da
:101c9400020020001e0090008000eb0002004000c3
:101ca40083804800010037006000b8000080fa001b
:101cb400000006000a00fa00e006210050409000ef
:101cc4008040e800e006210051409800e006210031
:101cd400504090000080fb00e40f50007900320077
:101ce400e40f500007003c00e20f500045003200b2
:101cf400e20f50005b003c00e10f50000a0032008c
:101d040009023700e60f5000a7003200e60f50002a
:101d140082003500e70f500004013200e80f500044
:101d24006101320000023700b1868000008020008b
:101d3400008060000000e0000002320080202100ea
:101d44009000900020019000b001900010007800f5
:101d540024222100009abe000292be00002121002c
:101d64009000900020019000b001900010007800d5
:101d7400a4222100009abe000292be00802121000c
:101d84009000900020019000b001900010007800b5
:101d940024232100009abe000292be0030908000ed
:101da40000918800842021006000b8006011b80010
:101db400009abe000292be00042121006000b80017
:101dc4006011b800009abe000292be008421210076
:101dd4006000b8006011b800009abe000292be0014
:101de4000000eb0030908800b086800000b0a100b5
:101df400b0868800b086800000c0a000b08688004d
:101e0400db013700b1868000000021000080600003
:101e14000000e000cb013200049180002022210068
:101e24009000900020019000b00190001000780014
:101e34000dff070030079800410798003e0090000e
:101e4400ce009000ddfe0700f087880024222100e8
:101e54006000b8006011b800009abe000292be0093
:101e6400c3013700b18680000000210000806000bb
:101e74000000e000b501320004918000a02221009e
:101e84009000900020019000b001900010007800b4
:101e9400f5fe070030079800410798003e009000c7
:101ea400ce009000c5fe070000888800a42221000f
:101eb4006000b8006011b800009abe000292be0033
:101ec400ab013700b1868000000021000080600073
:101ed4000000e0009f0132000491800020232100d3
:101ee4009000900020019000b00190001000780054
:101ef400ddfe070030079800410798003e0090007f
:101f040010888800242321006000b8006011b80004
:101f1400009abe000292be0095013700b18680008f
:101f240000002100008060000000e0008b0132000e
:101f3400a186800000402000008060000000e000d6
:101f440003003200b1888000010f780002003700de
:101f5400c2888000020f7800f08780001e00b8005d
:101f640030079800410798003e019000ce01900090
:101f7400008020000100200002004000838048000f
:101f8400d2888000820178008301e90003003300d5
:101f94008100d1000080d300fbff370000007800ef
:101fa4006087880072013700b1868000000021003c
:101fb400008060000000e0006a013200a186800019
:101fc40000402000008060000000e000210032009a
:101fd4000188800020898000808f5000090036002d
:101fe40041898000010f78000188800020898000e9
:101ff4000080500020079800328980001207980062
:102004003400370001888000f0888000808f500001
:102014000900360013898000030f780001888000ce
:10202400f08880000080500020079800018980001b
:102034001107980027003700e2888000020f78001b
:1020440003888000230798000000eb001007980025
:102054002000370001888000b0898000808f500004
:1020640009003600d1898000010f780001888000c2
:10207400b08980000080500020079800c289800049
:1020840012079800130037000188800080898000bf
:10209400808f500009003600a3898000030f780068
:1020a400018880008089800000805000200798000b
:1020b400918980001107980006003700728980001a
:1020c400020f780003888000230798000000eb00cb
:1020d400100798002e0090001e00b80030079800ea
:1020e400410798003e019000ce019000008020003e
:1020f400010020000200400083804800528b8000d1
:10210400820178008301e900030033008100d100db
:102114000080d300fbff3700800078001e00900091
:10212400008040007087880011013700b18680006c
:1021340000002100008060000000e0000b0132007c
:10214400a186800000402000008060000000e000c4
:102154002100320011888000408a8000808f500066
:1021640009003600618a8000010f78001188800020
:10217400408a80000080500020079800528a800026
:10218400120798003400370011888000108a8000fc
:10219400808f500009003600338a8000030f7800d6
:1021a40011888000108a8000008050002007980069
:1021b400218a80001107980027003700028a8000d6
:1021c400020f780013888000230798000000eb00ba
:1021d400100798002000370011888000d08a800002
:1021e400808f500009003600f18a8000010f7800ca
:1021f40011888000d08a8000008050002007980059
:10220400e28a8000120798001300370011888000ca
:10221400a08a8000808f500009003600c38a8000a5
:10222400030f780011888000a08a8000008050008d
:1022340020079800b18a8000110798000600370033
:10224400928a8000020f7800138880002307980088
:102254000000eb00100798002e0090001e00b8004c
:1022640030079800410798003e009000ce0090008f
:102274000020b0000180b000628b800082017800f1
:102284008301e900030033008100d1000080d30002
:10229400fbff3700800078001e00900000804000a3
:1022a40080878800b2003700b186800000002100da
:1022b400008060000000e00097003200d2918000ae
:1022c400e3918000608780008000eb000200400002
:1022d40083804800d0918800e1918800f2918000c9
:1022e40003928000708780008000eb0002004000b1
:1022f40083804800f0918800019288001292800047
:1023040023928000808780008000eb000200400060
:1023140083804800109288002192880032928000c5
:1023240043928000f08780008000eb0002004000b0
:102334008380480030928800419288005292800045
:1023440063928000008880008000eb00020040005f
:1023540083804800509288006192880072928000c5
:1023640083928000108880008000eb00020040000f
:102374008380480070928800819288009092800047
:102384000000e8009092880090928000ff0f5000b7
:102394005e003600d0918000e19180004b09dd00a1
:1023a4004500de0000007100c508de000000780072
:1023b400e0868800f091800001928000cb09dd0066
:1023c4004500de0000807100c508de0000007800d2
:1023d400f086880010928000219280004b09dd0075
:1023e4004500de0000007100c508de000000780032
:1023f400008788003092800041928000cb09dd0084
:102404004500de0000807100c508de000000780091
:102414002088880050928000619280004b09dd0082
:102424004500de0000007100c508de0000007800f1
:10243400308888007092800081928000cb09dd0092
:102444004500de0000807100c508de000000780051
:10245400408888006000b800d0918800e19188002d
:102464006000b800f0918800019288006000b80014
:1024740010928800219288006000b8003092880091
:10248400419288006000b8005092880061928800f0
:102494006000b80070928800819288000000eb0010
:1024a4009092880001878000f0ed2200808f500018
:1024b40014003e000087800001ee220000805000de
:1024c400100798001e009000d10e20000100b800f3
:1024d40030079800410798003e009000ce0090001d
:1024e4004409dd004c00de0000007100cc08de0071
:1024f400100798001e0090005009b000b0838800b7
:102504000200370050092000b0838800b0868000a4
:1025140000c0a100b0868800e00621008040eb00e6
:102524005140980012003700e00621008040eb0083
:1025340051409800000000000d003700000000002a
:102544000b00370000000000090037000000000005
:1025540007003700000000000500370000000000fd
:1025640003003700000000000100370000000000f5
:102574000080fa00000006000400fa000cf90700cd
:10258400cef90700d1868000c0868000010070006b
:10259400d0868800028c8000138c8000f02080009c
:1025a4008000eb000200400083804800008c88001b
:1025b400118c8800228c8000338c8000e020800005
:1025c4008000eb000200400083804800208c8800db
:1025d400318c8800428c8000538c800090218000d4
:1025e4008000eb000200400083804800408c88009b
:1025f400518c880081d0bf000040e80081f0b70012
:1026040081d0bf00e74f500028003600008c8000c6
:10261400118c800064004000e08048004d09dd001a
:102624004300de0000007100c308de0000007800f3
:1026340020878800208c8000318c8000640040005a
:10264400e0804800cd09dd004300de000080710019
:10265400c308de000000780030878800408c8000ca
:10266400518c800064004000e08048004d09dd008a
:102674004300de0000007100c308de0000007800a3
:10268400408788006000b800008c8800118c8800a6
:102694006000b800208c8800318c88006000b8008d
:1026a400408c8800518c88008170ef00e006210086
:1026b400204090008040e800e0062100214098007e
:1026c400e0062100204090000080fb00e30f500052
:1026d400b6003200e30f500005003c00e10f50004b
:1026e40008003200e20f500009003200aa0037004f
:1026f400e40f500036003200e50f5000360032007f
:10270400a5003700eff9070017fb0700aa00370000
:1027140059fb0700e28b8000f38b8000308480003b
:102724008000eb000200400083804800e08b8800ba
:10273400f18b880080d0bf000040e80080f0b70033
:1027440080d0bf00ff4f50009a003600e08b80001d
:10275400f18b800070004000e0804800cb09dd0070
:102764004500de0000807100c508de00000078002e
:1027740070888800218b8000708880000100b80078
:10278400008fbe0000802000010020003e014000b8
:10279400ae8148000200be00728b80008201780086
:1027a4008301e900030033008100d1000080d300dd
:1027b400fbff370000007800108788006000b80035
:1027c400e08b8800f18b88008070ef007a0037007e
:1027d40038fd070078003700e00621008040eb0058
:1027e40021409800e0062100304090008040e8003d
:1027f400e006210031409800e006210030409000be
:102804000080fb006101b9000080eb008080eb00d8
:102814000200400083804800920020000300200052
:10282400820f5000838f580056003e0000060100be
:1028340009003700090037000a0037000b00370091
:102844000b0037000b0037000b0037000b0037007c
:102854000b0037000b0037004e0037008afb0700df
:102864004c00370024fc07004a00370049003700b9
:10287400480037004700370046003700450037005e
:1028840044003700e00621008040eb00314098000e
:10289400e0062100404090008040e800e00621006e
:1028a40041409800e0062100404090000080fb0079
:1028b4006101b9000080eb008080eb000200400061
:1028c400838048009200200003002000820f500003
:1028d400838f580026003e000006010009003700df
:1028e40017003700170037001700370017003700ac
:1028f400170037001700370017003700170037009c
:102904001700370095d0bf000040e80095f0b700ed
:1029140095d0bf00ea4f50000800360094d0bf00a5
:102924000040e80094f0b70094d0bf00e14f4000ad
:1029340001003a009470ef009570ef00100037002a
:102944000f0037000e0037000d0037000c00370071
:102954000b0037000a003700090037000800370071
:10296400e00621008040eb0041409800040037005d
:10297400e00621008040eb00414098000000000088
:1029840004003700e00621008040eb00314098004d
:102994000000000008003700e00621008040eb0042
:1029a40021409800000000000300370000000000f0
:1029b40001003700000000000080fa00000006005b
:020000040000fa
:1029c4002400fa00889fbe008a9fbe008c9fbe0030
:1029d400803821003086880080442f00408688009b
:1029e400208080009000780080848000808f5000d8
:1029f40008003200218080008084800080087800f4
:102a04000180800020808000100078000000d10048
:102a1400800878002121800040218000808f5000b0
:102a240005003600212180004021800000805000f4
:102a34004084880004003700412180002021800068
:102a44000080500040848800a020800030848800ea
:102a5400a186800000042000008060000000e000e7
:102a6400b40432009080800080007800c0cc240040
:102a74000088b900410add004f01de000201720046
:102a8400cf89de0002017800408480008000780055
:102a9400303323000088b900410bdd004f02de0013
:102aa40004027300cf8ade000400780000004100b5
:102ab40090808800b0808000800078009099210088
:102ac4000088b9004109dd004f03de0006037100f0
:102ad400cf8bde000601780030848000800078000f
:102ae400606626000088b900c109dd004f04de00dd
:102af40008847100cf8cde000800780000004100db
:102b0400b0808800b08080008000780090808000d1
:102b14008080500020092000808f50000500340080
:102b2400b180800090808000008050001081880077
:102b340002003700200920001081880010818000e5
:102b440080017800b08080008000780030818000af
:102b54000182b90004179800151798008202210019
:102b64000e1290009e12900011000900432ad80012
:102b740001097800cf80de005081880061818800df
:102b84005281800063818000f0ff2000010020005a
:102b9400800f5100818f59000d003c00508180004e
:102ba40061818000800078008080800010007800bf
:102bb4000180b900c40add004c05de000a857200fc
:102bc400cc8dde000a007800808188000300370085
:102bd400808080001000780080818800c18080009f
:102be4008081800000805000a0818800a181800045
:102bf400d00c2000808f500002003400d00c200044
:102c0400a08188006003210020019000b0019000a1
:102c140031868000a08180000180b900020140005b
:102c24008381480041868000008280000180b900d1
:102c34000201400083814800200421002200980002
:102c4400330098002004210020019000b00190007e
:102c5400e0808000f1808000020140008381480010
:102c6400a00421002200980033009800a004210051
:102c740020019000b0019000608480007184800085
:102c8400800f5100818f59000f003400628480004e
:102c940073848000a004210022009800330098006f
:102ca4006284800073848000e0808000f180800072
:102cb4000001510081815900200421002200980064
:102cc4003300980012003700a0042100b0009000e7
:102cd40020009000e00f5000e08f58000c003d00f1
:102ce400e0808000f180800060011000e081180025
:102cf4002004210022009800330098003430ef00b3
:102d0400a20421006000b80020019800310198005d
:102d14002004210020019000b001900060032100f4
:102d24002200980033009800a0818000008288006f
:102d3400a0042100b000900020009000440bdd00ae
:102d44004c06de000c067300cc8ede000c0078000e
:102d54003081880031818000008180000080500033
:102d6400308188004280800020808000100078003c
:102d740080007800308180000180b900c409dd0042
:102d8400cc03de0087837100070f78004c8ade00d5
:102d9400140798001e00780000097800b1808000b4
:102da40080ff2000808f50000300360041808000a7
:102db4000000eb0080087800618080004080800083
:102dc400100078000000d10080087800b0868000f0
:102dd400610060000000e0000800320030848000e0
:102de400a080880030848000b0808800b086800095
:102df4000000a100b086880022003700b086800061
:102e0400620060000000e0001e0032009182800039
:102e140020868000808f500017003600e0838000f9
:102e240080007800a0808000808f5000040036006d
:102e3400a08080000000e800a08088000c0037001b
:102e4400e083800080007800a0808000808f5000a4
:102e540004003100a08080000000e900a080880008
:102e640003003700b08680000010a100b0868800ff
:102e74005230ef0003003700908280000000e80029
:102e840090828800a1808000b08080000080500083
:102e9400a0828800a182800090042000808f5000ce
:102ea40004003c00a182800070fb2f00808f500042
:102eb40025003d00c18680000004200000806000e1
:102ec4000000e0000700320056d0bf00e34f50007e
:102ed4000a003e0056d0bf000040e80056f0b7009c
:102ee4000600370056d0bf00e34f500003003e00f9
:102ef40056d0bf000040e80056f0b70080fd2a001d
:102f040050868800d0fb2a00608688005830ef0085
:102f1400a182800090042000808f500003003400c0
:102f240090042000a08288000d003700a182800058
:102f340070fb2f00808f500008003d0070fb2f00b5
:102f4400a08288000600370030fd2a0050868800e1
:102f5400d0fb2a00608688000100370000000000d2
:102f640056d0bf000004e0001000320056d0bf006d
:102f74008080fb00a08280008088b900a082880045
:102f8400c0828000e50f5000050036005830ef0085
:102f940056d0bf000040e90056f0b70003003700e8
:102fa400c08280000000e800c08288005186800052
:102fb400a08280000101b900d0828000e1828000fb
:102fc400020140008381480061868000f082800015
:102fd4000100b9000000510081805900008388007d
:102fe400118388000283800013838000005228002c
:102ff400b17e2000800f5100818f590005003400fc
:1030040000522800b17e20000083880011838800cc
:10301400080037000083800011838000e00f500017
:10302400e08f580003003d006030ef006230ef0095
:103034005430ef00c186800000002400008060004e
:103044000000e000030032006030ef006230ef0067
:103054005430ef000083800011838000d082880008
:10306400e1828800a0828000f082880000838000d2
:1030740011838000410bdd00cf02de008502730066
:1030840025079800cf8bde00370798002e009000ac
:103094002083880020838000eb0f500003003c0055
:1030a400500520003083880004003700208380000e
:1030b400ee0f5000010034006630ef0031838000d1
:1030c40050052000808f50000b003a006430ef0060
:1030d4001a30ef003e30ef00620321006000b800b8
:1030e4000089be004030ef00620321006000b80098
:1030f400200198003101980010818000800178003f
:10310400b080800080007800208180000182b900b6
:103114000417980015179800820221000e129000df
:103124009e12900011000900432ad800010978007a
:10313400cf80de0050818800618188005281800048
:1031440063818000f0ff200001002000800f510007
:10315400818f59000f003c00508180006181800004
:103164008000780070808000100078000180b90031
:10317400440bdd00cc02de00850273004507980095
:10318400cc8bde00570798004e00900070818800b9
:103194000300370070808000100078007081880080
:1031a400c180800070818000008050009081880080
:1031b40091818000d00c2000808f500002003400e8
:1031c400d00c200090818800600321001001780059
:1031d4009001900031868000908180000180b900c8
:1031e400020140008381480041868000f081800014
:1031f4000180b900020040008380480022042100bd
:103204000089be0020042100100178009001900084
:10321400e0808000f180800002004000838048004c
:10322400a20421000089be00a0042100100178003e
:10323400900190006084800071848000800f5100b0
:10324400818f59000d0034006084800071848000f7
:10325400a20421000089be0062848000738480007f
:10326400e0808000f18080000000510081805900de
:10327400220421000089be0010003700a0042100b0
:103284009000900010007800e00f5000e08f58008c
:103294000a003d00e0808000f180800060001000a2
:1032a400e0801800220421000089be003230ef00c3
:1032b400a20421006000b8000089be00200421009f
:1032c4009000900010007800620321000089be0085
:1032d40090818000f0818800a0042100900090007b
:1032e40010007800c409dd004c01de000281710089
:1032f400620798004c8ade00740798006e00900004
:1033040020818800218180000081800000804000ad
:10331400208188003280800020818000118b23006e
:103324000180b900440bdd00cc02de00850273008d
:10333400050f9800cc8bde00170f98000e08900044
:1033440000097800b180800080ff2000808f500049
:1033540003003600308080008000eb000108780014
:103364005080800031808000910078008100d1007d
:10337400010878007186800010848000808f5000de
:1033840004003d007086800065004000708688005f
:10339400070037007186800010848000808f500001
:1033a40003003400708680000000e9007086880005
:1033b4009080800080007800208380000180b90024
:1033c400c409dd004c01de0002817100220f980067
:1033d4004c8ade00340f98002e089000cf80de0067
:1033e400508188006181880072868000508180004d
:1033f40061818000000078000280b900440bdd0088
:10340400cc02de0085027300450f9800cc8bde00f1
:10341400570f98004e089000cf80de00508188003e
:103424006181880050818000618180000000780003
:10343400910126000180b900c409dd004c01de00c1
:1034440002817100620f98004c8ade00740f9800ac
:103454006e089000c0808800c180800020f32000a6
:10346400808f50000200340020f32000c0808800c8
:1034740020838000ea0f50000e003400d1808000c9
:10348400e0ff2000808f500003003c00d0808000cb
:103494009002b000d0808800d1808000f0ff20002e
:1034a400808f50000c003400f0ff2000d080880092
:1034b4000900370020838000e40f500006003c0020
:1034c400d08080000000e00003003400d080800041
:1034d4000000e900d0808800a180800090808000f6
:1034e400808f50001c003600a0808000000278000d
:1034f400a08080006101b800908080008000eb0013
:1035040000015100818159004c1bdd00c413de0011
:10351400870373004c13dd000617980017179800f3
:10352400820221000e1390009e13900011000900e6
:10353400443bd8000109780040838800418380001f
:10354400d0fa2000808f500004003400d0fa20000c
:1035540040838800010037006830ef00a1868000b6
:1035640000402000008060000000e0000a003200fb
:10357400c0808000e1ff21000100b800c40bdd0021
:103584004c00de0000807300cc08de00508388000d
:103594006183880009003700c0808000b14c22009c
:1035a4000100b8004409dd004c00de000000710099
:1035b400cc08de0050838800618388005283800039
:1035c40063838000c003200001002000800f5100ad
:1035d400818f590004003e00d00320000100200028
:1035e4005083880061838800908080006101b80066
:1035f4005083800061838000800f5100818f5900c7
:10360400c001360094808000528380006383800070
:103614004c1bdd00c413de00870373004c13dd0074
:1036240006179800171798000e1190009e1190002d
:10363400110009004499d8008000eb0050838800f1
:1036440061838800408380000001780050838000fb
:1036540061838000000078000200b800c909de0020
:10366400470add004901de0002017200707020008b
:1036740001002000800f5100818f59009f003e00ff
:1036840040838000000178005083800061838000c3
:10369400000078000200b800c909de00c70add0096
:1036a4004901de0002817200b02b200001002000dd
:1036b400800f5100818f590050003e0040838000ec
:1036c400000178005083800061838000000078004e
:1036d4000200b800c909de00470bdd004901de0025
:1036e40002017300d001200001002000800f51006e
:1036f400818f590010003e00408380000001780053
:103704005083800061838000000078000200b800cc
:10371400c70bdd004900de0000807300c908de002d
:103724006f005000e080580000007800f700b900f6
:10373400d02bb000300037004083800000017800b7
:103744005083800061838000000078000200b8008c
:10375400c909de00470add004901de0002017200ea
:10376400700c200001002000800f5100818f59004f
:1037740012003e00408380000001780050838000e6
:1037840061838000000078000200b800c70add00f1
:103794004900de0000807200c908de000005b100a7
:1037a4000180b10000007800ea00b90080007800d0
:1037b40030652000008040000f0037004083800007
:1037c400000178005083800061838000000078004d
:1037d4000200b800470bdd004900de000000730062
:1037e400c908de0000007800201cb100c200dd0022
:1037f40000f02000008040003f003700408380003c
:10380400000178005083800061838000000078000c
:103814000200b800c909de00c70bdd004901de0063
:1038240002817300703e200001002000800f5100cf
:10383400818f590012003e0040838000000178000f
:103844005083800061838000000078000200b8008b
:103854004709dd004900de0000007100c908de00f0
:103864002035b1000180b10000007800e300b90008
:1038740080007800d0492100008040001e003700fd
:1038840040838000000178005083800061838000c1
:10389400000078000200b800c709dd004900de001e
:1038a40000807100c908de00420525008289b90044
:1038b400e002b900840178000301410043052500ba
:1038c4000300b80001014100820078000257210082
:1038d40083e62f000000410081804900c30add0017
:1038e4004d00de0000807200cd08de00800078000c
:1038f400f097210000804000d6003700408380000c
:10390400000178005083800061838000000078000b
:103914000200b800c909de00470bdd004901de00e2
:10392400020173007032220001002000800f510058
:10393400818f59004d003e004083800000017800d3
:103944005083800061838000000078000200b8008a
:10395400c909de00c70bdd004901de0002817300e6
:103964003019210001002000800f5100818f59007f
:103974001f003e00408380000001780050838000d7
:1039840061838000000078000200b8004709dd0070
:103994004900de0000007100c908de0062aa2600aa
:1039a4008289b900e002b900840178000301410072
:1039b40063aa26000300b8000101410082007800d8
:1039c400c2b1200033b32f000000410081804900c0
:1039d400c20add004e00de0000807200ce08de0068
:1039e4008000780080662200008040001e003700be
:1039f4004083800000017800508380006183800050
:103a0400000078000200b800470bdd004900de002a
:103a140000007300c908de00927d24008289b90089
:103a2400e002b9008401780003014100937d240081
:103a34000300b8000101410082007800c2e32b00ba
:103a4400f38d2f000000410081804900c20add008f
:103a54004e00de0000807200ce08de008000780098
:103a640020902300008040007a00370040838000cb
:103a7400000178005083800061838000000078009a
:103a84000200b800c909de00470bdd004901de0071
:103a94000201730070a9230001002000800f51006f
:103aa400818f59001f003e00408380000001780090
:103ab4005083800061838000000078000200b80019
:103ac400c70bdd004900de0000807300c908de007a
:103ad400129c26008289b900e002b90084017800b2
:103ae40003014100139c26000300b80001014100ba
:103af4008200780002922c0023ca2e0000004100ac
:103b040081804900c10add004f00de0000807200a0
:103b1400cf08de008000780050d7240000804000e9
:103b24004c003700408380000001780050838000ff
:103b340061838000000078000200b800c909de003b
:103b4400470bdd004901de0002017300f05e250031
:103b540001002000800f5100818f59001f003e009a
:103b640040838000000178005083800061838000de
:103b7400000078000200b800c70bdd004900de0039
:103b840000807300c908de00926525008289b900af
:103b9400e002b90084017800030141009365250027
:103ba4000300b800010141008200780002e32a000a
:103bb40083842e000000410081804900c10add0099
:103bc4004f00de0000807200cf08de008000780025
:103bd400e0ed2500008040001e0037004083800097
:103be4000001780050838000618380000000780029
:103bf4000200b800470bdd004900de00000073003e
:103c0400c908de00226024008289b900e002b900fc
:103c14008401780003014100236024000300b800fc
:103c2400010141008200780002a12500f32b2e003f
:103c34000000410081804900c10add004f00de0020
:103c440000807200cf08de0080007800305027002a
:103c5400008040008000eb0050838800618388006e
:103c6400508380006183800000007800f1ff27000a
:103c74000100b8004208de000100200050838800e3
:103c840061838800b0868000640060000000e0006a
:103c94000b003200508380006183800000007800b4
:103ca400814920000100b800460bdd004a00de0017
:103cb40000007300ca08de00508388006183880016
:103cc400408380006101b9005083800061838000db
:103cd400800f5100818f590005003100408380001e
:103ce400cf80de00e0808800f18088000900370082
:103cf4005083800061838000e0808800f180880028
:103d04000400370040838000cf80de00e08088001c
:103d1400f1808800d2808000e0808000f180800003
:103d2400000078000280b900e0808800f1808800fb
:103d340021003700262cef00048ea900008ea80075
:103d4400b08680000000a000b0868800b0868000a5
:103d54000010a000b08688005e30ef005a30ef00fb
:103d64005c30ef00308080008000eb0001087800b8
:103d7400508080008000eb00010878003e30ef00a6
:103d8400620321006000b8000089be00408080000a
:103d94008000eb0001087800608080008000eb0068
:103da400010878004030ef00620321006000b80091
:103db4002001980031019800b18680000010200095
:103dc400008060000000e0000d003a004021800007
:103dd400ea00400020218000808f50001400310050
:103de400618f800040062000808f50001000360054
:103df400b08680000080a000b08688000c003700e8
:103e040020218000ea00400040218000808f500083
:103e140007003100618f800040062000808f500031
:103e240003003600b08680000080a100b0868800c0
:103e3400d020800050848800e01e21001002780009
:103e44009002900020039000b00390004184800011
:103e5400408480000100b8006011b80000004200f6
:103e640081804a0002014b0083814b00e41e210043
:103e7400009abe000292be00601f2100100278006a
:103e84009002900020039000b003900051848000c1
:103e9400508480000100b8006011b80000004200a6
:103ea40081804a0002014b0083814b00641f210082
:103eb400009abe000292be00e01f210010027800aa
:103ec4009002900020039000b00390005184800081
:103ed400408480000100b8006011b8000000420076
:103ee40081804a0002014b0083814b00e41f2100c2
:103ef400009abe000292be00608f80000000e800bd
:103f0400608f8800b08680004900de00e1406000d8
:103f1400b08680004800de006140600080cf500021
:103f240004003200618f8000000f2000808f500059
:103f340004003e00618f8000004b2000808f500001
:103f440038003600b086800000b0a000b08688003b
:103f5400e01e21009000900020019000b00190002c
:103f64001000780084202100009abe000292be0056
:103f7400601f21009000900020019000b00190008b
:103f84001000780004212100009abe000292be00b5
:103f9400e01f21009000900020019000b0019000eb
:103fa400100078004800de00c80bdd0000807300bc
:103fb400c808de00c813dd00818073004811de00ec
:103fc400c81bdd0002817300c819de0084212100b2
:103fd400009abe000292be00608f8000309088007c
:103fe400e41e21006000b8006011b800009abe0011
:103ff4000292be00641f21006000b8006011b80086
:10400400009abe000292be00e41f21006000b800c6
:104014006011b800009abe000292be000000eb00de
:10402400608f8800b08680004800de006140600038
:104034000080fb00610060004900dd00b186800063
:104044000190a10001007000b08688004f06be00f8
:104054004f05be004f04be000080fa0000000600b9
:020000040000fa
:104064000000fa00042eef0080012000a0708800f8
:10407400242eef00f000200000708800707e2d00d8
:1040840080708800f0bf2100007188000c2eef00c2
:104094001c2eef002c2eef000a2eef001a2eef003c
:1040a4002a2eef00062eef00162eef00262eef002c
:1040b400700020007070880070622000f07088002a
:1040c40070a3210070718800113a8000f00b200069
:1040d400008160006004200071052000237420002a
:1040e40080497800814978008249780060c3b30030
:1040f400c4e6b70011348000f00f2c00008060008b
:104104000080a0001034880010cbb300b8e6b700dc
:1041140081348000f00f2c0080806000009021002a
:10412400010070008034880000cbb300b9e6b7000a
:104134008134800000fc2f00008060008001b30007
:1041440080348800103a8000000178000260a000ea
:104154006004200071052000237420008049780049
:1041640081497800824978000080fa000000060046
:104174000000fa0000002300203a88004827ef00de
:104184004e27ef00f0032000303a880000742a0024
:10419400803a88004c27ef006027ef006227ef0089
:1041a4006427ef006a27ef006c27ef006e27ef000b
:1041b4001200200080072000a10920003374200091
:1041c40080497800814978008249780012002000f3
:1041d40060042000710520002374200080497800c9
:1041e400814978008249780000000000103a80007c
:1041f400610060000000e000fcff3a0000000000e5
:10420400113a800000022000008060000000e000fd
:10421400fbff32000080fa00000006000000fa00f4
:10422400803a80004e00de00614060000080fb00a8
:1042340000f0a7000000ea000000ea004f00de00e2
:10424400004078000080fa00000006000000fa0038
:1042540001438000f0f82f00008060000040a000bf
:10426400004388003142800080ff2f0000806000fe
:104274003000b3003042880021428000f0ff280063
:104284000080600000e0a00020428800c14380005c
:10429400f0f82f008080600000062000010070000c
:1042a400c04388002142800080ff2f00008060000e
:1042b4000000a0002042880001428000f0ff280096
:1042c4000080600000c0a000004288000080fa0066
:1042d400000006000000fa0010042000002a8800f4
:1042e400a09e2000102a880041e5a80010002000ac
:1042f400202a880040e22000302a88009143800070
:10430400f0ff28008080600000002500010070009c
:10431400904388000ce8a9002ce8a80045e5a80013
:1043240010042000402a880040ce2000502a880033
:10433400a143800080ff2f00008060005000b30084
:10434400a04388000d08a9002d08a80049e5a8008d
:1043540020612000302a880080ff2000502a880035
:1043640020612000102a88000080fa000000060066
:104374000000fa00022cef000e2cef00102cef00ce
:1043840080ff2f0090608800142cef00108b240015
:1043940020608800062cef00000025005060880093
:1043a4001a2cef001e2cef0010082000006188007a
:1043b4001008200000628800102820000063880094
:1043c400802cef00a02cef0000c02800e3c12000e7
:1043d40011322400d2bc2a008209780081097800b5
:1043e4001061880000c02800e3c1200011322400bd
:1043f400d2bc2a0082097800810978001062880002
:1044040000c02800e3c1200011322400d2bc2a00dd
:1044140082097800810978001063880000002c006c
:10442400e3c1200011322400d2bc2a0082097800a2
:10443400810978001064880000002c00e3c120008a
:1044440011322400d2bc2a00820978008109780044
:104454001065880030912800e3c120001132240047
:10446400d2bc2a0082097800810978002061880082
:1044740030912800e3c1200011322400d2bc2a006c
:10448400820978008109780020628800b0502800f1
:10449400e3c1200011322400d2bc2a008209780032
:1044a400810978002063880080402000e3c1200057
:1044b40011322400d2bc2a008209780081097800d4
:1044c4002064880080402000e3c1200011322400d1
:1044d400d2bc2a008209780081097800206588000e
:1044e400262cef00462cef00662cef00862cef0004
:1044f400a62cef00282cef00482cef00682cef00ce
:10450400882cef00a82cef0011618000f0fc2f0034
:104514000080600010618800b0502800206188008d
:1045240021618000c0ff2f00008060000000a00017
:104534002061880011628000f0fc2f000080600080
:104544001062880030912800206288002162800077
:10455400c0ff2f00008060000000a00020628800df
:104564002a2cef004a2cef006a2cef008a2cef0073
:10457400aa2cef002c2cef004c2cef006c2cef003d
:104584008c2cef00ac2cef002e2cef004e2cef0007
:104594006e2cef008e2cef00ae2cef00302cef00d1
:1045a400502cef00702cef00902cef00b02cef009b
:1045b400322cef00522cef00722cef00922cef0003
:1045c400b22cef0000002100a0618800000021004f
:1045d400a062880000002100a0638800942cef00f2
:1045e400b42cef00362cef00562cef00762cef00a5
:1045f400962cef00b62cef00382cef00582cef006f
:10460400782cef00982cef00b82cef0080422800a3
:10461400d061880080422800d0628800804228004f
:10462400d06388009a2cef00ba2cef003c2cef00ea
:104634005c2cef007c2cef009c2cef00bc2cef00da
:104644003e2cef005e2cef007e2cef009e2cef0042
:10465400be2cef0000002800006088000080fa00f3
:10466400000006000000fa000021ef0070ec2200b8
:104674001008880000002800200888008c0107002a
:104684000068a9002068a800603121008040eb0088
:10469400014878000080fa00000006000000fa00db
:1046a4000023ef00000620001018880020002000de
:1046b4002018880010002000301888000823ef001c
:1046c40000002c00501888000c23ef000e23ef008c
:1046d4001023ef001223ef001423ef0090012500b4
:1046e400001988002223ef003823ef004023ef0055
:1046f4003a23ef004223ef003c23ef004423ef0072
:104704003e23ef004623ef0000402000501b8800aa
:1047140000402000701b8800a023ef00a423ef00ba
:10472400d023ef00d223ef00d423ef00d823ef00ef
:10473400dc23ef00e023ef0020302000b01e8800cf
:1047440020302000d01e880020302000f01e880079
:1047540020302000101f8800f023ef00f223ef0028
:104764000224ef005a0107000e28a9002e28a800f1
:104774001120800000f0200001007000102088004b
:1047840001e3a8004a0007005400070018000700ce
:10479400220007002e0007003800070060002000f8
:1047a400001c880000502000101c880050002000cd
:1047b400201c880050502000301c8800c0c02000fd
:1047c400401c88008a23ef0050002000601c8800f1
:1047d40050002000701c88009023ef0000c02000cf
:1047e400901c88009423ef000080fa00000006006b
:1047f4000000fa000004a80000000000012080006e
:1048040000102000008060000000e000fbff320088
:104814000a03a8000080fa00000006000000fa0065
:104824000424a8000444a9000404a8000000000013
:104834002120800000082000008060000000e000cb
:10484400fbff32000424a9000080fa0000000600e7
:104854000000fa000064a8000000000001208000ad
:1048640000802000008060000000e000fbff3200b8
:104874000a63a8000080fa00000006000000fa00a5
:104884000724a8000744a9000704a80000000000aa
:104894003120800000002800008060000000e0005b
:1048a400fbff32000724a9000080fa000000060084
:1048b4000000fa0000e4a8000000000001208000cd
:1048c40000002800008060000000e000fbff3200d0
:1048d4000ae3a8000080fa00000006000000fa00c5
:1048e4000b24a8000b44a9000b04a800000000003e
:1048f4005120800000002800008060000000e000db
:10490400fbff32000b24a9000080fa00000006001f
:104914000200fa00000f780021028000200f20001e
:10492400008060001e007000200288000080fa00f1
:10493400000006000000fa00c3e8a8000000000020
:10494400000000000080fa00000006000000fa00e9
:10495400c3fd070006fe07003cfe07005dfe0700de
:1049640083fe07004dff07003eff0700f1ff07002d
:1049740000022000e6ff07000080fa0000000600a5
:020000040000fa
:104984000200fa000000eb00a08688000000eb00a3
:10499400b0868800c08680000000a000c086880021
:1049a400c08680000030a000c0868800c0868000d9
:1049b4000010a000c0868800b08680000030a100ee
:1049c400b0868800c086800000c0a000c086880031
:1049d400c086800000d0a000c08688000000eb00e4
:1049e400b08b88000000eb00c08b88000000eb0057
:1049f400d08b8800e00621008000eb0001087800dd
:104a0400e00621008000eb0011009800e006210080
:104a14008000eb0021009800e00621008000eb00fc
:104a240031009800e41e21006000b8006011b80055
:104a3400009abe000292be00641f21006000b8000c
:104a44006011b800009abe000292be00e41f21006b
:104a54006000b8006011b800009abe000292be0067
:104a64006000b800d0918800e19188006000b8002f
:104a740010928800219288006000b800f0918800ac
:104a8400019288000000eb009092880050092000f9
:104a9400b0838800a0472100e10e200060848800d4
:104aa4007184880000c02000000f7800e0fe200020
:104ab400b0888800e0fe2000c0888800c000200084
:104ac400d088880010682000e0888800b0072000a3
:104ad400f08888002003200000898800105b2000f3
:104ae40010898800300e200020898800700520007d
:104af40030898800c05e200040898800f08720004b
:104b0400508988008032200060898800b0832000aa
:104b14007089880060042000808988004002200099
:104b24009089880050552000a0898800e008200062
:104b3400b0898800c0032000c0898800e05d20009f
:104b4400d089880020582000e0898800d0202000e7
:104b5400f0898800c0002000508b8800006220008b
:104b6400008a8800a0192000108a8800a013200061
:104b7400208a880040602000308a8800d0312000dc
:104b8400408a8800d0252000508a880000602000d8
:104b9400608a880050dd2100708a880060662100e8
:104ba400808a8800606e2000908a8800801d200022
:104bb400a08a880070192000b08a8800505c200008
:104bc400c08a8800d03f2000d08a8800303220007c
:104bd400e08a8800105d2000f08a8800e07d2200d1
:104be400008b8800b0d32100108b8800b000200017
:104bf400608b880000462000208b8800c0002000c5
:104c0400708b8800a00c2000908b8800a086800008
:104c140000d0a000a08688000080fa0000000600f2
:104c24000000fa0056ff07002e000700a0722200c1
:104c340000000100a08680000050a000a08688002b
:084c44000080fa0000000600e8
:020000040000fa
:104c4c000000fa00e0062100900078000100a000ae
:104c5c00010878000080fa00000006000200fa004b
:104c6c00000f78002068a9009e00780081868800db
:104c7c002068a8000080fa00000006000200fa007c
:104c8c00000f78004cf707000080fa0000000600c7
:104c9c000200fa00000f78001e0078009086880051
:104cac000080fa00000006000000fa0080868000f8
:104cbc000000e00002003a0060622200e7ff0700fb
:104ccc000080fa00000006000000fa004064220098
:0c4cdc00efff07000080fa000000060057
:020000040000fa
:104ce8000000fa0040c020002080880060c2200038
:104cf8003080880020c32000508088002041200098
:104d08007080880080c220000080880080c4200055
:104d18001080880060c420004080880020c52000e2
:104d280060808800c040200080808800108b2300ad
:104d380080848800108b230090848800108b2300c7
:104d480020608800148ea800262cef00462cef0067
:104d580080c521004061880080832b004063880063
:0c4d6800662cef000080fa00000006003e
:020000040000fa
:104d74000c1300000a00000082000000490c4900e6
:104d84000c490c00490c49000c000000d410000030
:104d9400c0010000800000006e10000056000000fa
:104da40080000000941200007800000080000000e1
:104db400001000006e00000080000000c41000001d
:104dc4000c00000082000000050088001348f40075
:104dd400d3afbd00afff0f001613000002000000a8
:104de40080000000d01000000400000080000000db
:044df40000000000bb
:020000040000fa
:104df8000000fa0089ff0700e00621001000780093
:104e0800610060000000e00005003200d9f50700ed
:104e1800e0062100900078000100a1000108780058
:084e280000000000f4ff370058
:020000040000fa
:104e30000000fa0020612000302a880080ff200056
:104e4000502a880020612000102a88000080fa0083
:104e5000000006000000fa000080fa0000000600d2
:104e60000000fa00bafe0700e3ff07000000eb00b5
:104e70000080fa00000006000000fa000080fa003e
:044e80000000060028
:020000040000fa
:020000040001f9
:045f0000ffff00009f
:020000040000fa
:020000040001f9
:045f2000ff1f00005f
:020000040000fa
:020000040001f9
:045f300078ffff00f7
:020000040000fa
:020000040001f9
:045f38007bffff00ec
:020000040000fa
:020000040001f9
:045f40009fffff00c0
:020000040000fa
:020000040001f9
:045f5000dfffff0070
:020000040000fa
:020000040001f9
:045f5800ffffff0048
:020000040000fa
:020000040001f9
:045f6000ffffff0040
:020000040000fa
:020000040001f9
:045ff800ff0f000097
:020000040000fa
:020000040100f9
:04200000ffffff00df
:00000001FF
